{
  "contractName": "OpenPlanet",
  "abi": [
    {
      "inputs": [],
      "stateMutability": "nonpayable",
      "type": "constructor"
    },
    {
      "anonymous": false,
      "inputs": [
        {
          "indexed": true,
          "internalType": "address",
          "name": "owner",
          "type": "address"
        },
        {
          "indexed": true,
          "internalType": "address",
          "name": "approved",
          "type": "address"
        },
        {
          "indexed": true,
          "internalType": "uint256",
          "name": "tokenId",
          "type": "uint256"
        }
      ],
      "name": "Approval",
      "type": "event"
    },
    {
      "anonymous": false,
      "inputs": [
        {
          "indexed": true,
          "internalType": "address",
          "name": "owner",
          "type": "address"
        },
        {
          "indexed": true,
          "internalType": "address",
          "name": "operator",
          "type": "address"
        },
        {
          "indexed": false,
          "internalType": "bool",
          "name": "approved",
          "type": "bool"
        }
      ],
      "name": "ApprovalForAll",
      "type": "event"
    },
    {
      "anonymous": false,
      "inputs": [
        {
          "indexed": true,
          "internalType": "address",
          "name": "previousOwner",
          "type": "address"
        },
        {
          "indexed": true,
          "internalType": "address",
          "name": "newOwner",
          "type": "address"
        }
      ],
      "name": "OwnershipTransferred",
      "type": "event"
    },
    {
      "anonymous": false,
      "inputs": [
        {
          "indexed": true,
          "internalType": "address",
          "name": "from",
          "type": "address"
        },
        {
          "indexed": true,
          "internalType": "address",
          "name": "to",
          "type": "address"
        },
        {
          "indexed": true,
          "internalType": "uint256",
          "name": "tokenId",
          "type": "uint256"
        }
      ],
      "name": "Transfer",
      "type": "event"
    },
    {
      "inputs": [
        {
          "internalType": "address",
          "name": "to",
          "type": "address"
        },
        {
          "internalType": "uint256",
          "name": "tokenId",
          "type": "uint256"
        }
      ],
      "name": "approve",
      "outputs": [],
      "stateMutability": "nonpayable",
      "type": "function"
    },
    {
      "inputs": [
        {
          "internalType": "address",
          "name": "owner",
          "type": "address"
        }
      ],
      "name": "balanceOf",
      "outputs": [
        {
          "internalType": "uint256",
          "name": "",
          "type": "uint256"
        }
      ],
      "stateMutability": "view",
      "type": "function",
      "constant": true
    },
    {
      "inputs": [
        {
          "internalType": "uint256",
          "name": "tokenId",
          "type": "uint256"
        }
      ],
      "name": "getApproved",
      "outputs": [
        {
          "internalType": "address",
          "name": "",
          "type": "address"
        }
      ],
      "stateMutability": "view",
      "type": "function",
      "constant": true
    },
    {
      "inputs": [
        {
          "internalType": "address",
          "name": "owner",
          "type": "address"
        },
        {
          "internalType": "address",
          "name": "operator",
          "type": "address"
        }
      ],
      "name": "isApprovedForAll",
      "outputs": [
        {
          "internalType": "bool",
          "name": "",
          "type": "bool"
        }
      ],
      "stateMutability": "view",
      "type": "function",
      "constant": true
    },
    {
      "inputs": [],
      "name": "name",
      "outputs": [
        {
          "internalType": "string",
          "name": "",
          "type": "string"
        }
      ],
      "stateMutability": "view",
      "type": "function",
      "constant": true
    },
    {
      "inputs": [
        {
          "internalType": "uint256",
          "name": "",
          "type": "uint256"
        }
      ],
      "name": "nftTokenPrices",
      "outputs": [
        {
          "internalType": "uint256",
          "name": "",
          "type": "uint256"
        }
      ],
      "stateMutability": "view",
      "type": "function",
      "constant": true
    },
    {
      "inputs": [
        {
          "internalType": "uint256",
          "name": "",
          "type": "uint256"
        }
      ],
      "name": "onSaleNftTokenArray",
      "outputs": [
        {
          "internalType": "uint256",
          "name": "",
          "type": "uint256"
        }
      ],
      "stateMutability": "view",
      "type": "function",
      "constant": true
    },
    {
      "inputs": [],
      "name": "owner",
      "outputs": [
        {
          "internalType": "address",
          "name": "",
          "type": "address"
        }
      ],
      "stateMutability": "view",
      "type": "function",
      "constant": true
    },
    {
      "inputs": [
        {
          "internalType": "uint256",
          "name": "tokenId",
          "type": "uint256"
        }
      ],
      "name": "ownerOf",
      "outputs": [
        {
          "internalType": "address",
          "name": "",
          "type": "address"
        }
      ],
      "stateMutability": "view",
      "type": "function",
      "constant": true
    },
    {
      "inputs": [],
      "name": "renounceOwnership",
      "outputs": [],
      "stateMutability": "nonpayable",
      "type": "function"
    },
    {
      "inputs": [
        {
          "internalType": "address",
          "name": "from",
          "type": "address"
        },
        {
          "internalType": "address",
          "name": "to",
          "type": "address"
        },
        {
          "internalType": "uint256",
          "name": "tokenId",
          "type": "uint256"
        }
      ],
      "name": "safeTransferFrom",
      "outputs": [],
      "stateMutability": "nonpayable",
      "type": "function"
    },
    {
      "inputs": [
        {
          "internalType": "address",
          "name": "from",
          "type": "address"
        },
        {
          "internalType": "address",
          "name": "to",
          "type": "address"
        },
        {
          "internalType": "uint256",
          "name": "tokenId",
          "type": "uint256"
        },
        {
          "internalType": "bytes",
          "name": "data",
          "type": "bytes"
        }
      ],
      "name": "safeTransferFrom",
      "outputs": [],
      "stateMutability": "nonpayable",
      "type": "function"
    },
    {
      "inputs": [
        {
          "internalType": "address",
          "name": "operator",
          "type": "address"
        },
        {
          "internalType": "bool",
          "name": "approved",
          "type": "bool"
        }
      ],
      "name": "setApprovalForAll",
      "outputs": [],
      "stateMutability": "nonpayable",
      "type": "function"
    },
    {
      "inputs": [],
      "name": "symbol",
      "outputs": [
        {
          "internalType": "string",
          "name": "",
          "type": "string"
        }
      ],
      "stateMutability": "view",
      "type": "function",
      "constant": true
    },
    {
      "inputs": [
        {
          "internalType": "uint256",
          "name": "index",
          "type": "uint256"
        }
      ],
      "name": "tokenByIndex",
      "outputs": [
        {
          "internalType": "uint256",
          "name": "",
          "type": "uint256"
        }
      ],
      "stateMutability": "view",
      "type": "function",
      "constant": true
    },
    {
      "inputs": [
        {
          "internalType": "address",
          "name": "owner",
          "type": "address"
        },
        {
          "internalType": "uint256",
          "name": "index",
          "type": "uint256"
        }
      ],
      "name": "tokenOfOwnerByIndex",
      "outputs": [
        {
          "internalType": "uint256",
          "name": "",
          "type": "uint256"
        }
      ],
      "stateMutability": "view",
      "type": "function",
      "constant": true
    },
    {
      "inputs": [],
      "name": "totalSupply",
      "outputs": [
        {
          "internalType": "uint256",
          "name": "",
          "type": "uint256"
        }
      ],
      "stateMutability": "view",
      "type": "function",
      "constant": true
    },
    {
      "inputs": [
        {
          "internalType": "address",
          "name": "from",
          "type": "address"
        },
        {
          "internalType": "address",
          "name": "to",
          "type": "address"
        },
        {
          "internalType": "uint256",
          "name": "tokenId",
          "type": "uint256"
        }
      ],
      "name": "transferFrom",
      "outputs": [],
      "stateMutability": "nonpayable",
      "type": "function"
    },
    {
      "inputs": [
        {
          "internalType": "address",
          "name": "newOwner",
          "type": "address"
        }
      ],
      "name": "transferOwnership",
      "outputs": [],
      "stateMutability": "nonpayable",
      "type": "function"
    },
    {
      "inputs": [
        {
          "internalType": "bytes4",
          "name": "interfaceId",
          "type": "bytes4"
        }
      ],
      "name": "supportsInterface",
      "outputs": [
        {
          "internalType": "bool",
          "name": "",
          "type": "bool"
        }
      ],
      "stateMutability": "view",
      "type": "function",
      "constant": true
    },
    {
      "inputs": [
        {
          "internalType": "uint256",
          "name": "tokenId",
          "type": "uint256"
        }
      ],
      "name": "tokenURI",
      "outputs": [
        {
          "internalType": "string",
          "name": "",
          "type": "string"
        }
      ],
      "stateMutability": "view",
      "type": "function",
      "constant": true
    },
    {
      "inputs": [
        {
          "internalType": "address",
          "name": "recipient",
          "type": "address"
        },
        {
          "internalType": "string",
          "name": "tokenURI",
          "type": "string"
        }
      ],
      "name": "mintNFT",
      "outputs": [
        {
          "internalType": "uint256",
          "name": "",
          "type": "uint256"
        }
      ],
      "stateMutability": "nonpayable",
      "type": "function"
    },
    {
      "inputs": [
        {
          "internalType": "address",
          "name": "owner",
          "type": "address"
        }
      ],
      "name": "listUserNFTs",
      "outputs": [
        {
          "internalType": "uint256[]",
          "name": "",
          "type": "uint256[]"
        }
      ],
      "stateMutability": "view",
      "type": "function",
      "constant": true
    },
    {
      "inputs": [
        {
          "internalType": "address",
          "name": "_nftTokenOwner",
          "type": "address"
        }
      ],
      "name": "getNftTokens",
      "outputs": [
        {
          "components": [
            {
              "internalType": "uint256",
              "name": "nftTokenId",
              "type": "uint256"
            },
            {
              "internalType": "string",
              "name": "nftTokenURI",
              "type": "string"
            }
          ],
          "internalType": "struct OpenPlanet.NftTokenData[]",
          "name": "",
          "type": "tuple[]"
        }
      ],
      "stateMutability": "view",
      "type": "function",
      "constant": true
    },
    {
      "inputs": [
        {
          "internalType": "uint256",
          "name": "_tokenId",
          "type": "uint256"
        },
        {
          "internalType": "uint256",
          "name": "_price",
          "type": "uint256"
        }
      ],
      "name": "addToMarket",
      "outputs": [],
      "stateMutability": "nonpayable",
      "type": "function"
    },
    {
      "inputs": [],
      "name": "getMarketList",
      "outputs": [
        {
          "components": [
            {
              "internalType": "uint256",
              "name": "nftTokenId",
              "type": "uint256"
            },
            {
              "internalType": "string",
              "name": "nftTokenURI",
              "type": "string"
            }
          ],
          "internalType": "struct OpenPlanet.NftTokenData[]",
          "name": "",
          "type": "tuple[]"
        }
      ],
      "stateMutability": "view",
      "type": "function",
      "constant": true
    },
    {
      "inputs": [],
      "name": "getSaleNftToken",
      "outputs": [
        {
          "internalType": "uint256[]",
          "name": "",
          "type": "uint256[]"
        }
      ],
      "stateMutability": "view",
      "type": "function",
      "constant": true
    },
    {
      "inputs": [
        {
          "internalType": "uint256",
          "name": "_tokenId",
          "type": "uint256"
        }
      ],
      "name": "getNftTokenPrice",
      "outputs": [
        {
          "internalType": "uint256",
          "name": "",
          "type": "uint256"
        }
      ],
      "stateMutability": "view",
      "type": "function",
      "constant": true
    },
    {
      "inputs": [
        {
          "internalType": "uint256",
          "name": "_tokenId",
          "type": "uint256"
        }
      ],
      "name": "buyNft",
      "outputs": [],
      "stateMutability": "payable",
      "type": "function",
      "payable": true
    },
    {
      "inputs": [
        {
          "internalType": "uint256",
          "name": "_tokenId",
          "type": "uint256"
        }
      ],
      "name": "burn",
      "outputs": [],
      "stateMutability": "nonpayable",
      "type": "function"
    }
  ],
  "bytecode": "0x60806040523480156200001157600080fd5b506040518060400160405280600d81526020017f6f70656e506c616e65744e4654000000000000000000000000000000000000008152506040518060400160405280600581526020017f4f504e465400000000000000000000000000000000000000000000000000000081525081600090816200008f919062000412565b508060019081620000a1919062000412565b505050620000c4620000b8620000ca60201b60201c565b620000d260201b60201c565b620004f9565b600033905090565b6000600760009054906101000a900473ffffffffffffffffffffffffffffffffffffffff16905081600760006101000a81548173ffffffffffffffffffffffffffffffffffffffff021916908373ffffffffffffffffffffffffffffffffffffffff1602179055508173ffffffffffffffffffffffffffffffffffffffff168173ffffffffffffffffffffffffffffffffffffffff167f8be0079c531659141344cd1fd0a4f28419497f9722a3daafe3b4186f6b6457e060405160405180910390a35050565b600081519050919050565b7f4e487b7100000000000000000000000000000000000000000000000000000000600052604160045260246000fd5b7f4e487b7100000000000000000000000000000000000000000000000000000000600052602260045260246000fd5b600060028204905060018216806200021a57607f821691505b60208210810362000230576200022f620001d2565b5b50919050565b60008190508160005260206000209050919050565b60006020601f8301049050919050565b600082821b905092915050565b6000600883026200029a7fffffffffffffffffffffffffffffffffffffffffffffffffffffffffffffffff826200025b565b620002a686836200025b565b95508019841693508086168417925050509392505050565b6000819050919050565b6000819050919050565b6000620002f3620002ed620002e784620002be565b620002c8565b620002be565b9050919050565b6000819050919050565b6200030f83620002d2565b620003276200031e82620002fa565b84845462000268565b825550505050565b600090565b6200033e6200032f565b6200034b81848462000304565b505050565b5b8181101562000373576200036760008262000334565b60018101905062000351565b5050565b601f821115620003c2576200038c8162000236565b62000397846200024b565b81016020851015620003a7578190505b620003bf620003b6856200024b565b83018262000350565b50505b505050565b600082821c905092915050565b6000620003e760001984600802620003c7565b1980831691505092915050565b6000620004028383620003d4565b9150826002028217905092915050565b6200041d8262000198565b67ffffffffffffffff811115620004395762000438620001a3565b5b62000445825462000201565b6200045282828562000377565b600060209050601f8311600181146200048a576000841562000475578287015190505b620004818582620003f4565b865550620004f1565b601f1984166200049a8662000236565b60005b82811015620004c4578489015182556001820191506020850194506020810190506200049d565b86831015620004e45784890151620004e0601f891682620003d4565b8355505b6001600288020188555050505b505050505050565b6147a580620005096000396000f3fe6080604052600436106101cd5760003560e01c80636352211e116100f757806395d89b4111610095578063e985e9c511610064578063e985e9c5146106c5578063eacabe1414610702578063f257f5481461073f578063f2fde38b1461077c576101cd565b806395d89b411461060b578063a22cb46514610636578063b88d4fde1461065f578063c87b56dd14610688576101cd565b806373e778c5116100d157806373e778c51461053d5780637fb5f7a61461057a5780638da5cb5b146105a3578063912c45cf146105ce576101cd565b80636352211e146104ac57806370a08231146104e9578063715018a614610526576101cd565b806323b872dd1161016f57806342966c681161013e57806342966c68146103de5780634ae23e64146104075780634f6ccce7146104445780635b9907a414610481576101cd565b806323b872dd14610333578063243adbdd1461035c5780632f745c591461037857806342842e0e146103b5576101cd565b8063095ea7b3116101ab578063095ea7b314610277578063173160a9146102a057806318160ddd146102dd5780631efceb9014610308576101cd565b806301ffc9a7146101d257806306fdde031461020f578063081812fc1461023a575b600080fd5b3480156101de57600080fd5b506101f960048036038101906101f49190612da9565b6107a5565b6040516102069190612df1565b60405180910390f35b34801561021b57600080fd5b506102246107b7565b6040516102319190612e9c565b60405180910390f35b34801561024657600080fd5b50610261600480360381019061025c9190612ef4565b610849565b60405161026e9190612f62565b60405180910390f35b34801561028357600080fd5b5061029e60048036038101906102999190612fa9565b61088f565b005b3480156102ac57600080fd5b506102c760048036038101906102c29190612fe9565b6109a6565b6040516102d491906130d4565b60405180910390f35b3480156102e957600080fd5b506102f2610a54565b6040516102ff9190613105565b60405180910390f35b34801561031457600080fd5b5061031d610a61565b60405161032a91906130d4565b60405180910390f35b34801561033f57600080fd5b5061035a60048036038101906103559190613120565b610ab9565b005b61037660048036038101906103719190612ef4565b610b19565b005b34801561038457600080fd5b5061039f600480360381019061039a9190612fa9565b610cfc565b6040516103ac9190613105565b60405180910390f35b3480156103c157600080fd5b506103dc60048036038101906103d79190613120565b610da1565b005b3480156103ea57600080fd5b5061040560048036038101906104009190612ef4565b610dc1565b005b34801561041357600080fd5b5061042e60048036038101906104299190612ef4565b610e52565b60405161043b9190613105565b60405180910390f35b34801561045057600080fd5b5061046b60048036038101906104669190612ef4565b610e6a565b6040516104789190613105565b60405180910390f35b34801561048d57600080fd5b50610496610edb565b6040516104a391906132bc565b60405180910390f35b3480156104b857600080fd5b506104d360048036038101906104ce9190612ef4565b610fd3565b6040516104e09190612f62565b60405180910390f35b3480156104f557600080fd5b50610510600480360381019061050b9190612fe9565b611084565b60405161051d9190613105565b60405180910390f35b34801561053257600080fd5b5061053b61113b565b005b34801561054957600080fd5b50610564600480360381019061055f9190612ef4565b61114f565b6040516105719190613105565b60405180910390f35b34801561058657600080fd5b506105a1600480360381019061059c91906132de565b611173565b005b3480156105af57600080fd5b506105b8611248565b6040516105c59190612f62565b60405180910390f35b3480156105da57600080fd5b506105f560048036038101906105f09190612ef4565b611272565b6040516106029190613105565b60405180910390f35b34801561061757600080fd5b5061062061128f565b60405161062d9190612e9c565b60405180910390f35b34801561064257600080fd5b5061065d6004803603810190610658919061334a565b611321565b005b34801561066b57600080fd5b50610686600480360381019061068191906134bf565b611337565b005b34801561069457600080fd5b506106af60048036038101906106aa9190612ef4565b611399565b6040516106bc9190612e9c565b60405180910390f35b3480156106d157600080fd5b506106ec60048036038101906106e79190613542565b6113ab565b6040516106f99190612df1565b60405180910390f35b34801561070e57600080fd5b5061072960048036038101906107249190613623565b61143f565b6040516107369190613105565b60405180910390f35b34801561074b57600080fd5b5061076660048036038101906107619190612fe9565b611477565b60405161077391906132bc565b60405180910390f35b34801561078857600080fd5b506107a3600480360381019061079e9190612fe9565b611557565b005b60006107b0826115da565b9050919050565b6060600080546107c6906136ae565b80601f01602080910402602001604051908101604052809291908181526020018280546107f2906136ae565b801561083f5780601f106108145761010080835404028352916020019161083f565b820191906000526020600020905b81548152906001019060200180831161082257829003601f168201915b5050505050905090565b600061085482611654565b6004600083815260200190815260200160002060009054906101000a900473ffffffffffffffffffffffffffffffffffffffff169050919050565b600061089a82610fd3565b90508073ffffffffffffffffffffffffffffffffffffffff168373ffffffffffffffffffffffffffffffffffffffff160361090a576040517f08c379a000000000000000000000000000000000000000000000000000000000815260040161090190613751565b60405180910390fd5b8073ffffffffffffffffffffffffffffffffffffffff1661092961169f565b73ffffffffffffffffffffffffffffffffffffffff16148061095857506109578161095261169f565b6113ab565b5b610997576040517f08c379a000000000000000000000000000000000000000000000000000000000815260040161098e906137e3565b60405180910390fd5b6109a183836116a7565b505050565b606060006109b383611084565b905060008167ffffffffffffffff8111156109d1576109d0613394565b5b6040519080825280602002602001820160405280156109ff5781602001602082028036833780820191505090505b50905060005b82811015610a4957610a178582610cfc565b828281518110610a2a57610a29613803565b5b6020026020010181815250508080610a4190613861565b915050610a05565b508092505050919050565b6000600a80549050905090565b6060600e805480602002602001604051908101604052809291908181526020018280548015610aaf57602002820191906000526020600020905b815481526020019060010190808311610a9b575b5050505050905090565b610aca610ac461169f565b82611760565b610b09576040517f08c379a0000000000000000000000000000000000000000000000000000000008152600401610b009061391b565b60405180910390fd5b610b148383836117f5565b505050565b6000600d60008381526020019081526020016000205490506000610b3c83610fd3565b905060008211610b81576040517f08c379a0000000000000000000000000000000000000000000000000000000008152600401610b7890613987565b60405180910390fd5b3373ffffffffffffffffffffffffffffffffffffffff168173ffffffffffffffffffffffffffffffffffffffff1603610bef576040517f08c379a0000000000000000000000000000000000000000000000000000000008152600401610be6906139f3565b60405180910390fd5b610bf981306113ab565b610c38576040517f08c379a0000000000000000000000000000000000000000000000000000000008152600401610c2f90613a85565b60405180910390fd5b8073ffffffffffffffffffffffffffffffffffffffff166108fc349081150290604051600060405180830381858888f19350505050158015610c7e573d6000803e3d6000fd5b503073ffffffffffffffffffffffffffffffffffffffff166342842e0e8233866040518463ffffffff1660e01b8152600401610cbc93929190613aa5565b600060405180830381600087803b158015610cd657600080fd5b505af1158015610cea573d6000803e3d6000fd5b50505050610cf783611a5b565b505050565b6000610d0783611084565b8210610d48576040517f08c379a0000000000000000000000000000000000000000000000000000000008152600401610d3f90613b4e565b60405180910390fd5b600860008473ffffffffffffffffffffffffffffffffffffffff1673ffffffffffffffffffffffffffffffffffffffff168152602001908152602001600020600083815260200190815260200160002054905092915050565b610dbc83838360405180602001604052806000815250611337565b505050565b6000610dcc82610fd3565b90503373ffffffffffffffffffffffffffffffffffffffff168173ffffffffffffffffffffffffffffffffffffffff1614610e3c576040517f08c379a0000000000000000000000000000000000000000000000000000000008152600401610e3390613be0565b60405180910390fd5b610e4582611b4f565b610e4e82611a5b565b5050565b600d6020528060005260406000206000915090505481565b6000610e74610a54565b8210610eb5576040517f08c379a0000000000000000000000000000000000000000000000000000000008152600401610eac90613c72565b60405180910390fd5b600a8281548110610ec957610ec8613803565b5b90600052602060002001549050919050565b60606000610ee7610a61565b90506000815167ffffffffffffffff811115610f0657610f05613394565b5b604051908082528060200260200182016040528015610f3f57816020015b610f2c612cc6565b815260200190600190039081610f245790505b50905060005b8251811015610fca576000838281518110610f6357610f62613803565b5b602002602001015190506000610f7882611272565b90506040518060400160405280838152602001610f9484611399565b815250848481518110610faa57610fa9613803565b5b602002602001018190525050508080610fc290613861565b915050610f45565b50809250505090565b6000806002600084815260200190815260200160002060009054906101000a900473ffffffffffffffffffffffffffffffffffffffff169050600073ffffffffffffffffffffffffffffffffffffffff168173ffffffffffffffffffffffffffffffffffffffff160361107b576040517f08c379a000000000000000000000000000000000000000000000000000000000815260040161107290613cde565b60405180910390fd5b80915050919050565b60008073ffffffffffffffffffffffffffffffffffffffff168273ffffffffffffffffffffffffffffffffffffffff16036110f4576040517f08c379a00000000000000000000000000000000000000000000000000000000081526004016110eb90613d70565b60405180910390fd5b600360008373ffffffffffffffffffffffffffffffffffffffff1673ffffffffffffffffffffffffffffffffffffffff168152602001908152602001600020549050919050565b611143611b5b565b61114d6000611bd9565b565b600e818154811061115f57600080fd5b906000526020600020016000915090505481565b600061117e83610fd3565b90503373ffffffffffffffffffffffffffffffffffffffff168173ffffffffffffffffffffffffffffffffffffffff16146111ee576040517f08c379a00000000000000000000000000000000000000000000000000000000081526004016111e590613ddc565b60405180910390fd5b6111f9306001611321565b61120283611a5b565b81600d600085815260200190815260200160002081905550600e839080600181540180825580915050600190039060005260206000200160009091909190915055505050565b6000600760009054906101000a900473ffffffffffffffffffffffffffffffffffffffff16905090565b6000600d6000838152602001908152602001600020549050919050565b60606001805461129e906136ae565b80601f01602080910402602001604051908101604052809291908181526020018280546112ca906136ae565b80156113175780601f106112ec57610100808354040283529160200191611317565b820191906000526020600020905b8154815290600101906020018083116112fa57829003601f168201915b5050505050905090565b61133361132c61169f565b8383611c9f565b5050565b61134861134261169f565b83611760565b611387576040517f08c379a000000000000000000000000000000000000000000000000000000000815260040161137e9061391b565b60405180910390fd5b61139384848484611e0b565b50505050565b60606113a482611e67565b9050919050565b6000600560008473ffffffffffffffffffffffffffffffffffffffff1673ffffffffffffffffffffffffffffffffffffffff16815260200190815260200160002060008373ffffffffffffffffffffffffffffffffffffffff1673ffffffffffffffffffffffffffffffffffffffff16815260200190815260200160002060009054906101000a900460ff16905092915050565b600061144b600c611f79565b6000611457600c611f8f565b90506114638482611f9d565b61146d8184612176565b8091505092915050565b6060600061148483611084565b905060008167ffffffffffffffff8111156114a2576114a1613394565b5b6040519080825280602002602001820160405280156114db57816020015b6114c8612cc6565b8152602001906001900390816114c05790505b50905060005b8281101561154c5760006114f58683610cfc565b9050600061150282611399565b905060405180604001604052808381526020018281525084848151811061152c5761152b613803565b5b60200260200101819052505050808061154490613861565b9150506114e1565b508092505050919050565b61155f611b5b565b600073ffffffffffffffffffffffffffffffffffffffff168173ffffffffffffffffffffffffffffffffffffffff16036115ce576040517f08c379a00000000000000000000000000000000000000000000000000000000081526004016115c590613e6e565b60405180910390fd5b6115d781611bd9565b50565b60007f780e9d63000000000000000000000000000000000000000000000000000000007bffffffffffffffffffffffffffffffffffffffffffffffffffffffff1916827bffffffffffffffffffffffffffffffffffffffffffffffffffffffff1916148061164d575061164c826121e3565b5b9050919050565b61165d816122c5565b61169c576040517f08c379a000000000000000000000000000000000000000000000000000000000815260040161169390613cde565b60405180910390fd5b50565b600033905090565b816004600083815260200190815260200160002060006101000a81548173ffffffffffffffffffffffffffffffffffffffff021916908373ffffffffffffffffffffffffffffffffffffffff160217905550808273ffffffffffffffffffffffffffffffffffffffff1661171a83610fd3565b73ffffffffffffffffffffffffffffffffffffffff167f8c5be1e5ebec7d5bd14f71427d1e84f3dd0314c0f7b2291e5b200ac8c7c3b92560405160405180910390a45050565b60008061176c83610fd3565b90508073ffffffffffffffffffffffffffffffffffffffff168473ffffffffffffffffffffffffffffffffffffffff1614806117ae57506117ad81856113ab565b5b806117ec57508373ffffffffffffffffffffffffffffffffffffffff166117d484610849565b73ffffffffffffffffffffffffffffffffffffffff16145b91505092915050565b8273ffffffffffffffffffffffffffffffffffffffff1661181582610fd3565b73ffffffffffffffffffffffffffffffffffffffff161461186b576040517f08c379a000000000000000000000000000000000000000000000000000000000815260040161186290613f00565b60405180910390fd5b600073ffffffffffffffffffffffffffffffffffffffff168273ffffffffffffffffffffffffffffffffffffffff16036118da576040517f08c379a00000000000000000000000000000000000000000000000000000000081526004016118d190613f92565b60405180910390fd5b6118e5838383612331565b6118f06000826116a7565b6001600360008573ffffffffffffffffffffffffffffffffffffffff1673ffffffffffffffffffffffffffffffffffffffff16815260200190815260200160002060008282546119409190613fb2565b925050819055506001600360008473ffffffffffffffffffffffffffffffffffffffff1673ffffffffffffffffffffffffffffffffffffffff16815260200190815260200160002060008282546119979190613fe6565b92505081905550816002600083815260200190815260200160002060006101000a81548173ffffffffffffffffffffffffffffffffffffffff021916908373ffffffffffffffffffffffffffffffffffffffff160217905550808273ffffffffffffffffffffffffffffffffffffffff168473ffffffffffffffffffffffffffffffffffffffff167fddf252ad1be2c89b69c2b068fc378daa952ba7f163c4a11628f55a4df523b3ef60405160405180910390a4611a56838383612341565b505050565b6000600d60008381526020019081526020016000208190555060005b600e80549050811015611b4b576000600d6000600e8481548110611a9e57611a9d613803565b5b906000526020600020015481526020019081526020016000205403611b3857600e6001600e80549050611ad19190613fb2565b81548110611ae257611ae1613803565b5b9060005260206000200154600e8281548110611b0157611b00613803565b5b9060005260206000200181905550600e805480611b2157611b2061401a565b5b600190038181906000526020600020016000905590555b8080611b4390613861565b915050611a77565b5050565b611b5881612346565b50565b611b6361169f565b73ffffffffffffffffffffffffffffffffffffffff16611b81611248565b73ffffffffffffffffffffffffffffffffffffffff1614611bd7576040517f08c379a0000000000000000000000000000000000000000000000000000000008152600401611bce90614095565b60405180910390fd5b565b6000600760009054906101000a900473ffffffffffffffffffffffffffffffffffffffff16905081600760006101000a81548173ffffffffffffffffffffffffffffffffffffffff021916908373ffffffffffffffffffffffffffffffffffffffff1602179055508173ffffffffffffffffffffffffffffffffffffffff168173ffffffffffffffffffffffffffffffffffffffff167f8be0079c531659141344cd1fd0a4f28419497f9722a3daafe3b4186f6b6457e060405160405180910390a35050565b8173ffffffffffffffffffffffffffffffffffffffff168373ffffffffffffffffffffffffffffffffffffffff1603611d0d576040517f08c379a0000000000000000000000000000000000000000000000000000000008152600401611d0490614101565b60405180910390fd5b80600560008573ffffffffffffffffffffffffffffffffffffffff1673ffffffffffffffffffffffffffffffffffffffff16815260200190815260200160002060008473ffffffffffffffffffffffffffffffffffffffff1673ffffffffffffffffffffffffffffffffffffffff16815260200190815260200160002060006101000a81548160ff0219169083151502179055508173ffffffffffffffffffffffffffffffffffffffff168373ffffffffffffffffffffffffffffffffffffffff167f17307eab39ab6107e8899845ad3d59bd9653f200f220920489ca2b5937696c3183604051611dfe9190612df1565b60405180910390a3505050565b611e168484846117f5565b611e2284848484612399565b611e61576040517f08c379a0000000000000000000000000000000000000000000000000000000008152600401611e5890614193565b60405180910390fd5b50505050565b6060611e7282611654565b6000600660008481526020019081526020016000208054611e92906136ae565b80601f0160208091040260200160405190810160405280929190818152602001828054611ebe906136ae565b8015611f0b5780601f10611ee057610100808354040283529160200191611f0b565b820191906000526020600020905b815481529060010190602001808311611eee57829003601f168201915b505050505090506000611f1c612520565b90506000815103611f31578192505050611f74565b600082511115611f66578082604051602001611f4e9291906141ef565b60405160208183030381529060405292505050611f74565b611f6f84612537565b925050505b919050565b6001816000016000828254019250508190555050565b600081600001549050919050565b600073ffffffffffffffffffffffffffffffffffffffff168273ffffffffffffffffffffffffffffffffffffffff160361200c576040517f08c379a00000000000000000000000000000000000000000000000000000000081526004016120039061425f565b60405180910390fd5b612015816122c5565b15612055576040517f08c379a000000000000000000000000000000000000000000000000000000000815260040161204c906142cb565b60405180910390fd5b61206160008383612331565b6001600360008473ffffffffffffffffffffffffffffffffffffffff1673ffffffffffffffffffffffffffffffffffffffff16815260200190815260200160002060008282546120b19190613fe6565b92505081905550816002600083815260200190815260200160002060006101000a81548173ffffffffffffffffffffffffffffffffffffffff021916908373ffffffffffffffffffffffffffffffffffffffff160217905550808273ffffffffffffffffffffffffffffffffffffffff16600073ffffffffffffffffffffffffffffffffffffffff167fddf252ad1be2c89b69c2b068fc378daa952ba7f163c4a11628f55a4df523b3ef60405160405180910390a461217260008383612341565b5050565b61217f826122c5565b6121be576040517f08c379a00000000000000000000000000000000000000000000000000000000081526004016121b59061435d565b60405180910390fd5b806006600084815260200190815260200160002090816121de9190614529565b505050565b60007f80ac58cd000000000000000000000000000000000000000000000000000000007bffffffffffffffffffffffffffffffffffffffffffffffffffffffff1916827bffffffffffffffffffffffffffffffffffffffffffffffffffffffff191614806122ae57507f5b5e139f000000000000000000000000000000000000000000000000000000007bffffffffffffffffffffffffffffffffffffffffffffffffffffffff1916827bffffffffffffffffffffffffffffffffffffffffffffffffffffffff1916145b806122be57506122bd8261259f565b5b9050919050565b60008073ffffffffffffffffffffffffffffffffffffffff166002600084815260200190815260200160002060009054906101000a900473ffffffffffffffffffffffffffffffffffffffff1673ffffffffffffffffffffffffffffffffffffffff1614159050919050565b61233c838383612609565b505050565b505050565b61234f8161271b565b600060066000838152602001908152602001600020805461236f906136ae565b905014612396576006600082815260200190815260200160002060006123959190612ce0565b5b50565b60006123ba8473ffffffffffffffffffffffffffffffffffffffff16612838565b15612513578373ffffffffffffffffffffffffffffffffffffffff1663150b7a026123e361169f565b8786866040518563ffffffff1660e01b81526004016124059493929190614650565b6020604051808303816000875af192505050801561244157506040513d601f19601f8201168201806040525081019061243e91906146b1565b60015b6124c3573d8060008114612471576040519150601f19603f3d011682016040523d82523d6000602084013e612476565b606091505b5060008151036124bb576040517f08c379a00000000000000000000000000000000000000000000000000000000081526004016124b290614193565b60405180910390fd5b805181602001fd5b63150b7a0260e01b7bffffffffffffffffffffffffffffffffffffffffffffffffffffffff1916817bffffffffffffffffffffffffffffffffffffffffffffffffffffffff191614915050612518565b600190505b949350505050565b606060405180602001604052806000815250905090565b606061254282611654565b600061254c612520565b9050600081511161256c5760405180602001604052806000815250612597565b806125768461285b565b6040516020016125879291906141ef565b6040516020818303038152906040525b915050919050565b60007f01ffc9a7000000000000000000000000000000000000000000000000000000007bffffffffffffffffffffffffffffffffffffffffffffffffffffffff1916827bffffffffffffffffffffffffffffffffffffffffffffffffffffffff1916149050919050565b6126148383836129bb565b600073ffffffffffffffffffffffffffffffffffffffff168373ffffffffffffffffffffffffffffffffffffffff160361265657612651816129c0565b612695565b8173ffffffffffffffffffffffffffffffffffffffff168373ffffffffffffffffffffffffffffffffffffffff1614612694576126938382612a09565b5b5b600073ffffffffffffffffffffffffffffffffffffffff168273ffffffffffffffffffffffffffffffffffffffff16036126d7576126d281612b76565b612716565b8273ffffffffffffffffffffffffffffffffffffffff168273ffffffffffffffffffffffffffffffffffffffff1614612715576127148282612c47565b5b5b505050565b600061272682610fd3565b905061273481600084612331565b61273f6000836116a7565b6001600360008373ffffffffffffffffffffffffffffffffffffffff1673ffffffffffffffffffffffffffffffffffffffff168152602001908152602001600020600082825461278f9190613fb2565b925050819055506002600083815260200190815260200160002060006101000a81549073ffffffffffffffffffffffffffffffffffffffff021916905581600073ffffffffffffffffffffffffffffffffffffffff168273ffffffffffffffffffffffffffffffffffffffff167fddf252ad1be2c89b69c2b068fc378daa952ba7f163c4a11628f55a4df523b3ef60405160405180910390a461283481600084612341565b5050565b6000808273ffffffffffffffffffffffffffffffffffffffff163b119050919050565b6060600082036128a2576040518060400160405280600181526020017f300000000000000000000000000000000000000000000000000000000000000081525090506129b6565b600082905060005b600082146128d45780806128bd90613861565b915050600a826128cd919061470d565b91506128aa565b60008167ffffffffffffffff8111156128f0576128ef613394565b5b6040519080825280601f01601f1916602001820160405280156129225781602001600182028036833780820191505090505b5090505b600085146129af5760018261293b9190613fb2565b9150600a8561294a919061473e565b60306129569190613fe6565b60f81b81838151811061296c5761296b613803565b5b60200101907effffffffffffffffffffffffffffffffffffffffffffffffffffffffffffff1916908160001a905350600a856129a8919061470d565b9450612926565b8093505050505b919050565b505050565b600a80549050600b600083815260200190815260200160002081905550600a81908060018154018082558091505060019003906000526020600020016000909190919091505550565b60006001612a1684611084565b612a209190613fb2565b9050600060096000848152602001908152602001600020549050818114612b05576000600860008673ffffffffffffffffffffffffffffffffffffffff1673ffffffffffffffffffffffffffffffffffffffff168152602001908152602001600020600084815260200190815260200160002054905080600860008773ffffffffffffffffffffffffffffffffffffffff1673ffffffffffffffffffffffffffffffffffffffff168152602001908152602001600020600084815260200190815260200160002081905550816009600083815260200190815260200160002081905550505b6009600084815260200190815260200160002060009055600860008573ffffffffffffffffffffffffffffffffffffffff1673ffffffffffffffffffffffffffffffffffffffff16815260200190815260200160002060008381526020019081526020016000206000905550505050565b60006001600a80549050612b8a9190613fb2565b90506000600b60008481526020019081526020016000205490506000600a8381548110612bba57612bb9613803565b5b9060005260206000200154905080600a8381548110612bdc57612bdb613803565b5b906000526020600020018190555081600b600083815260200190815260200160002081905550600b600085815260200190815260200160002060009055600a805480612c2b57612c2a61401a565b5b6001900381819060005260206000200160009055905550505050565b6000612c5283611084565b905081600860008573ffffffffffffffffffffffffffffffffffffffff1673ffffffffffffffffffffffffffffffffffffffff168152602001908152602001600020600083815260200190815260200160002081905550806009600084815260200190815260200160002081905550505050565b604051806040016040528060008152602001606081525090565b508054612cec906136ae565b6000825580601f10612cfe5750612d1d565b601f016020900490600052602060002090810190612d1c9190612d20565b5b50565b5b80821115612d39576000816000905550600101612d21565b5090565b6000604051905090565b600080fd5b600080fd5b60007fffffffff0000000000000000000000000000000000000000000000000000000082169050919050565b612d8681612d51565b8114612d9157600080fd5b50565b600081359050612da381612d7d565b92915050565b600060208284031215612dbf57612dbe612d47565b5b6000612dcd84828501612d94565b91505092915050565b60008115159050919050565b612deb81612dd6565b82525050565b6000602082019050612e066000830184612de2565b92915050565b600081519050919050565b600082825260208201905092915050565b60005b83811015612e46578082015181840152602081019050612e2b565b60008484015250505050565b6000601f19601f8301169050919050565b6000612e6e82612e0c565b612e788185612e17565b9350612e88818560208601612e28565b612e9181612e52565b840191505092915050565b60006020820190508181036000830152612eb68184612e63565b905092915050565b6000819050919050565b612ed181612ebe565b8114612edc57600080fd5b50565b600081359050612eee81612ec8565b92915050565b600060208284031215612f0a57612f09612d47565b5b6000612f1884828501612edf565b91505092915050565b600073ffffffffffffffffffffffffffffffffffffffff82169050919050565b6000612f4c82612f21565b9050919050565b612f5c81612f41565b82525050565b6000602082019050612f776000830184612f53565b92915050565b612f8681612f41565b8114612f9157600080fd5b50565b600081359050612fa381612f7d565b92915050565b60008060408385031215612fc057612fbf612d47565b5b6000612fce85828601612f94565b9250506020612fdf85828601612edf565b9150509250929050565b600060208284031215612fff57612ffe612d47565b5b600061300d84828501612f94565b91505092915050565b600081519050919050565b600082825260208201905092915050565b6000819050602082019050919050565b61304b81612ebe565b82525050565b600061305d8383613042565b60208301905092915050565b6000602082019050919050565b600061308182613016565b61308b8185613021565b935061309683613032565b8060005b838110156130c75781516130ae8882613051565b97506130b983613069565b92505060018101905061309a565b5085935050505092915050565b600060208201905081810360008301526130ee8184613076565b905092915050565b6130ff81612ebe565b82525050565b600060208201905061311a60008301846130f6565b92915050565b60008060006060848603121561313957613138612d47565b5b600061314786828701612f94565b935050602061315886828701612f94565b925050604061316986828701612edf565b9150509250925092565b600081519050919050565b600082825260208201905092915050565b6000819050602082019050919050565b600082825260208201905092915050565b60006131bb82612e0c565b6131c5818561319f565b93506131d5818560208601612e28565b6131de81612e52565b840191505092915050565b60006040830160008301516132016000860182613042565b506020830151848203602086015261321982826131b0565b9150508091505092915050565b600061323283836131e9565b905092915050565b6000602082019050919050565b600061325282613173565b61325c818561317e565b93508360208202850161326e8561318f565b8060005b858110156132aa578484038952815161328b8582613226565b94506132968361323a565b925060208a01995050600181019050613272565b50829750879550505050505092915050565b600060208201905081810360008301526132d68184613247565b905092915050565b600080604083850312156132f5576132f4612d47565b5b600061330385828601612edf565b925050602061331485828601612edf565b9150509250929050565b61332781612dd6565b811461333257600080fd5b50565b6000813590506133448161331e565b92915050565b6000806040838503121561336157613360612d47565b5b600061336f85828601612f94565b925050602061338085828601613335565b9150509250929050565b600080fd5b600080fd5b7f4e487b7100000000000000000000000000000000000000000000000000000000600052604160045260246000fd5b6133cc82612e52565b810181811067ffffffffffffffff821117156133eb576133ea613394565b5b80604052505050565b60006133fe612d3d565b905061340a82826133c3565b919050565b600067ffffffffffffffff82111561342a57613429613394565b5b61343382612e52565b9050602081019050919050565b82818337600083830152505050565b600061346261345d8461340f565b6133f4565b90508281526020810184848401111561347e5761347d61338f565b5b613489848285613440565b509392505050565b600082601f8301126134a6576134a561338a565b5b81356134b684826020860161344f565b91505092915050565b600080600080608085870312156134d9576134d8612d47565b5b60006134e787828801612f94565b94505060206134f887828801612f94565b935050604061350987828801612edf565b925050606085013567ffffffffffffffff81111561352a57613529612d4c565b5b61353687828801613491565b91505092959194509250565b6000806040838503121561355957613558612d47565b5b600061356785828601612f94565b925050602061357885828601612f94565b9150509250929050565b600067ffffffffffffffff82111561359d5761359c613394565b5b6135a682612e52565b9050602081019050919050565b60006135c66135c184613582565b6133f4565b9050828152602081018484840111156135e2576135e161338f565b5b6135ed848285613440565b509392505050565b600082601f83011261360a5761360961338a565b5b813561361a8482602086016135b3565b91505092915050565b6000806040838503121561363a57613639612d47565b5b600061364885828601612f94565b925050602083013567ffffffffffffffff81111561366957613668612d4c565b5b613675858286016135f5565b9150509250929050565b7f4e487b7100000000000000000000000000000000000000000000000000000000600052602260045260246000fd5b600060028204905060018216806136c657607f821691505b6020821081036136d9576136d861367f565b5b50919050565b7f4552433732313a20617070726f76616c20746f2063757272656e74206f776e6560008201527f7200000000000000000000000000000000000000000000000000000000000000602082015250565b600061373b602183612e17565b9150613746826136df565b604082019050919050565b6000602082019050818103600083015261376a8161372e565b9050919050565b7f4552433732313a20617070726f76652063616c6c6572206973206e6f7420746f60008201527f6b656e206f776e6572206e6f7220617070726f76656420666f7220616c6c0000602082015250565b60006137cd603e83612e17565b91506137d882613771565b604082019050919050565b600060208201905081810360008301526137fc816137c0565b9050919050565b7f4e487b7100000000000000000000000000000000000000000000000000000000600052603260045260246000fd5b7f4e487b7100000000000000000000000000000000000000000000000000000000600052601160045260246000fd5b600061386c82612ebe565b91507fffffffffffffffffffffffffffffffffffffffffffffffffffffffffffffffff820361389e5761389d613832565b5b600182019050919050565b7f4552433732313a2063616c6c6572206973206e6f7420746f6b656e206f776e6560008201527f72206e6f7220617070726f766564000000000000000000000000000000000000602082015250565b6000613905602e83612e17565b9150613910826138a9565b604082019050919050565b60006020820190508181036000830152613934816138f8565b9050919050565b7f6e667420746f6b656e206e6f742073616c652e00000000000000000000000000600082015250565b6000613971601383612e17565b915061397c8261393b565b602082019050919050565b600060208201905081810360008301526139a081613964565b9050919050565b7f63616c6c6572206973206e667420746f6b656e206f776e65722e000000000000600082015250565b60006139dd601a83612e17565b91506139e8826139a7565b602082019050919050565b60006020820190508181036000830152613a0c816139d0565b9050919050565b7f6e667420746f6b656e206f776e657220646964206e6f7420617070726f76652060008201527f746f6b656e2e0000000000000000000000000000000000000000000000000000602082015250565b6000613a6f602683612e17565b9150613a7a82613a13565b604082019050919050565b60006020820190508181036000830152613a9e81613a62565b9050919050565b6000606082019050613aba6000830186612f53565b613ac76020830185612f53565b613ad460408301846130f6565b949350505050565b7f455243373231456e756d657261626c653a206f776e657220696e646578206f7560008201527f74206f6620626f756e6473000000000000000000000000000000000000000000602082015250565b6000613b38602b83612e17565b9150613b4382613adc565b604082019050919050565b60006020820190508181036000830152613b6781613b2b565b9050919050565b7f6d73672e73656e646572206973206e6f7420746865206f776e6572206f66207460008201527f686520746f6b656e000000000000000000000000000000000000000000000000602082015250565b6000613bca602883612e17565b9150613bd582613b6e565b604082019050919050565b60006020820190508181036000830152613bf981613bbd565b9050919050565b7f455243373231456e756d657261626c653a20676c6f62616c20696e646578206f60008201527f7574206f6620626f756e64730000000000000000000000000000000000000000602082015250565b6000613c5c602c83612e17565b9150613c6782613c00565b604082019050919050565b60006020820190508181036000830152613c8b81613c4f565b9050919050565b7f4552433732313a20696e76616c696420746f6b656e2049440000000000000000600082015250565b6000613cc8601883612e17565b9150613cd382613c92565b602082019050919050565b60006020820190508181036000830152613cf781613cbb565b9050919050565b7f4552433732313a2061646472657373207a65726f206973206e6f74206120766160008201527f6c6964206f776e65720000000000000000000000000000000000000000000000602082015250565b6000613d5a602983612e17565b9150613d6582613cfe565b604082019050919050565b60006020820190508181036000830152613d8981613d4d565b9050919050565b7f43616c6c6572206973206e6f74206e667420746f6b656e206f776e65722e0000600082015250565b6000613dc6601e83612e17565b9150613dd182613d90565b602082019050919050565b60006020820190508181036000830152613df581613db9565b9050919050565b7f4f776e61626c653a206e6577206f776e657220697320746865207a65726f206160008201527f6464726573730000000000000000000000000000000000000000000000000000602082015250565b6000613e58602683612e17565b9150613e6382613dfc565b604082019050919050565b60006020820190508181036000830152613e8781613e4b565b9050919050565b7f4552433732313a207472616e736665722066726f6d20696e636f72726563742060008201527f6f776e6572000000000000000000000000000000000000000000000000000000602082015250565b6000613eea602583612e17565b9150613ef582613e8e565b604082019050919050565b60006020820190508181036000830152613f1981613edd565b9050919050565b7f4552433732313a207472616e7366657220746f20746865207a65726f2061646460008201527f7265737300000000000000000000000000000000000000000000000000000000602082015250565b6000613f7c602483612e17565b9150613f8782613f20565b604082019050919050565b60006020820190508181036000830152613fab81613f6f565b9050919050565b6000613fbd82612ebe565b9150613fc883612ebe565b9250828203905081811115613fe057613fdf613832565b5b92915050565b6000613ff182612ebe565b9150613ffc83612ebe565b925082820190508082111561401457614013613832565b5b92915050565b7f4e487b7100000000000000000000000000000000000000000000000000000000600052603160045260246000fd5b7f4f776e61626c653a2063616c6c6572206973206e6f7420746865206f776e6572600082015250565b600061407f602083612e17565b915061408a82614049565b602082019050919050565b600060208201905081810360008301526140ae81614072565b9050919050565b7f4552433732313a20617070726f766520746f2063616c6c657200000000000000600082015250565b60006140eb601983612e17565b91506140f6826140b5565b602082019050919050565b6000602082019050818103600083015261411a816140de565b9050919050565b7f4552433732313a207472616e7366657220746f206e6f6e20455243373231526560008201527f63656976657220696d706c656d656e7465720000000000000000000000000000602082015250565b600061417d603283612e17565b915061418882614121565b604082019050919050565b600060208201905081810360008301526141ac81614170565b9050919050565b600081905092915050565b60006141c982612e0c565b6141d381856141b3565b93506141e3818560208601612e28565b80840191505092915050565b60006141fb82856141be565b915061420782846141be565b91508190509392505050565b7f4552433732313a206d696e7420746f20746865207a65726f2061646472657373600082015250565b6000614249602083612e17565b915061425482614213565b602082019050919050565b600060208201905081810360008301526142788161423c565b9050919050565b7f4552433732313a20746f6b656e20616c7265616479206d696e74656400000000600082015250565b60006142b5601c83612e17565b91506142c08261427f565b602082019050919050565b600060208201905081810360008301526142e4816142a8565b9050919050565b7f45524337323155524953746f726167653a2055524920736574206f66206e6f6e60008201527f6578697374656e7420746f6b656e000000000000000000000000000000000000602082015250565b6000614347602e83612e17565b9150614352826142eb565b604082019050919050565b600060208201905081810360008301526143768161433a565b9050919050565b60008190508160005260206000209050919050565b60006020601f8301049050919050565b600082821b905092915050565b6000600883026143df7fffffffffffffffffffffffffffffffffffffffffffffffffffffffffffffffff826143a2565b6143e986836143a2565b95508019841693508086168417925050509392505050565b6000819050919050565b600061442661442161441c84612ebe565b614401565b612ebe565b9050919050565b6000819050919050565b6144408361440b565b61445461444c8261442d565b8484546143af565b825550505050565b600090565b61446961445c565b614474818484614437565b505050565b5b818110156144985761448d600082614461565b60018101905061447a565b5050565b601f8211156144dd576144ae8161437d565b6144b784614392565b810160208510156144c6578190505b6144da6144d285614392565b830182614479565b50505b505050565b600082821c905092915050565b6000614500600019846008026144e2565b1980831691505092915050565b600061451983836144ef565b9150826002028217905092915050565b61453282612e0c565b67ffffffffffffffff81111561454b5761454a613394565b5b61455582546136ae565b61456082828561449c565b600060209050601f8311600181146145935760008415614581578287015190505b61458b858261450d565b8655506145f3565b601f1984166145a18661437d565b60005b828110156145c9578489015182556001820191506020850194506020810190506145a4565b868310156145e657848901516145e2601f8916826144ef565b8355505b6001600288020188555050505b505050505050565b600081519050919050565b600082825260208201905092915050565b6000614622826145fb565b61462c8185614606565b935061463c818560208601612e28565b61464581612e52565b840191505092915050565b60006080820190506146656000830187612f53565b6146726020830186612f53565b61467f60408301856130f6565b81810360608301526146918184614617565b905095945050505050565b6000815190506146ab81612d7d565b92915050565b6000602082840312156146c7576146c6612d47565b5b60006146d58482850161469c565b91505092915050565b7f4e487b7100000000000000000000000000000000000000000000000000000000600052601260045260246000fd5b600061471882612ebe565b915061472383612ebe565b925082614733576147326146de565b5b828204905092915050565b600061474982612ebe565b915061475483612ebe565b925082614764576147636146de565b5b82820690509291505056fea26469706673582212204f80565eff89c1715be2e5b43639d32f47ed05c4718cf923dc23d1d4fac4382e64736f6c63430008110033",
  "immutableReferences": {},
  "source": "// SPDX-License-Identifier: MIT\npragma solidity ^0.8.7;\n\nimport '@openzeppelin/contracts/token/ERC721/ERC721.sol';\nimport '@openzeppelin/contracts/utils/Counters.sol';\nimport '@openzeppelin/contracts/access/Ownable.sol';\nimport '@openzeppelin/contracts/token/ERC721/extensions/ERC721URIStorage.sol';\nimport '@openzeppelin/contracts/token/ERC721/extensions/ERC721Enumerable.sol';\n\ncontract OpenPlanet is ERC721URIStorage, Ownable, ERC721Enumerable {\n  using Counters for Counters.Counter;\n  Counters.Counter private _tokenIds;\n\n  constructor() public ERC721('openPlanetNFT', 'OPNFT') {}\n\n  function _beforeTokenTransfer(\n    address from,\n    address to,\n    uint256 tokenId\n  ) internal override(ERC721, ERC721Enumerable) {\n    super._beforeTokenTransfer(from, to, tokenId);\n  }\n\n  function _burn(uint256 tokenId) internal override(ERC721, ERC721URIStorage) {\n    super._burn(tokenId);\n  }\n\n  function supportsInterface(bytes4 interfaceId)\n    public\n    view\n    override(ERC721, ERC721Enumerable)\n    returns (bool)\n  {\n    return super.supportsInterface(interfaceId);\n  }\n\n  function tokenURI(uint256 tokenId)\n    public\n    view\n    override(ERC721, ERC721URIStorage)\n    returns (string memory)\n  {\n    return super.tokenURI(tokenId);\n  }\n\n  function mintNFT(address recipient, string memory tokenURI)\n    public\n    returns (uint256)\n  {\n    _tokenIds.increment();\n\n    uint256 newItemId = _tokenIds.current();\n    _mint(recipient, newItemId);\n    _setTokenURI(newItemId, tokenURI);\n    return newItemId;\n  }\n\n  function listUserNFTs(address owner)\n    external\n    view\n    returns (uint256[] memory)\n  {\n    uint256 balance = balanceOf(owner);\n    uint256[] memory tokens = new uint256[](balance);\n    for (uint256 i = 0; i < balance; i++) {\n      tokens[i] = (tokenOfOwnerByIndex(owner, i));\n    }\n\n    return tokens;\n  }\n\n  struct NftTokenData {\n    uint256 nftTokenId;\n    string nftTokenURI;\n    //uint price ;\n  }\n\n  function getNftTokens(address _nftTokenOwner)\n    public\n    view\n    returns (NftTokenData[] memory)\n  {\n    uint256 balanceLength = balanceOf(_nftTokenOwner);\n    NftTokenData[] memory nftTokenData = new NftTokenData[](balanceLength);\n    for (uint256 i = 0; i < balanceLength; i++) {\n      uint256 nftTokenId = tokenOfOwnerByIndex(_nftTokenOwner, i);\n      string memory nftTokenURI = tokenURI(nftTokenId);\n      nftTokenData[i] = NftTokenData(nftTokenId, nftTokenURI);\n      // uint tokenPrice = getNftTokenPrice(nftTokenId);\n      // nftTokenData[i] = NftTokenData(nftTokenId , nftTokenURI, tokenPrice );\n    }\n\n    return nftTokenData;\n  }\n\n  mapping(uint256 => uint256) public nftTokenPrices;\n  uint256[] public onSaleNftTokenArray;\n\n  function addToMarket(uint256 _tokenId, uint256 _price) public {\n    // nft    \n    address nftTokenOwner = ownerOf(_tokenId);\n\n    //    \n    require(nftTokenOwner == msg.sender, 'Caller is not nft token owner.');\n    // require(_price > 0, \"Price is zero or lower.\");\n    // require(nftTokenPrices[_tokenId] == 0, \"This nft token is already on sale.\");\n\n    setApprovalForAll(address(this), true);\n\n    //  \n    removeToken(_tokenId);\n\n    nftTokenPrices[_tokenId] = _price;\n\n    // push   \n    onSaleNftTokenArray.push(_tokenId); // nft list\n  }\n\n  // ,    Loop  \n  function getMarketList() public view returns (NftTokenData[] memory) {\n    uint256[] memory onSaleNftToken = getSaleNftToken();\n    NftTokenData[] memory onSaleNftTokens = new NftTokenData[](\n      onSaleNftToken.length\n    );\n\n    for (uint256 i = 0; i < onSaleNftToken.length; i++) {\n      uint256 tokenId = onSaleNftToken[i];\n      uint256 tokenPrice = getNftTokenPrice(tokenId);\n      onSaleNftTokens[i] = NftTokenData(tokenId, tokenURI(tokenId));\n    }\n\n    return onSaleNftTokens;\n  }\n\n  function getSaleNftToken() public view returns (uint256[] memory) {\n    return onSaleNftTokenArray;\n  }\n\n  function getNftTokenPrice(uint256 _tokenId) public view returns (uint256) {\n    return nftTokenPrices[_tokenId];\n  }\n\n  //, payable !!\n  function buyNft(uint256 _tokenId) public payable {\n    // \n    uint256 price = nftTokenPrices[_tokenId];\n    //  nft \n    address nftTokenOwner = ownerOf(_tokenId);\n\n    // , owner  .\n    require(price > 0, 'nft token not sale.');\n    // require(price  <= msg.value, \"caller sent lower than price.\");\n    require(nftTokenOwner != msg.sender, 'caller is nft token owner.');\n    //  false  .\n    require(\n      isApprovedForAll(nftTokenOwner, address(this)),\n      'nft token owner did not approve token.'\n    );\n\n    //   nft transfer\n    payable(nftTokenOwner).transfer(msg.value);\n\n    //  . IERC721  \n    IERC721(address(this)).safeTransferFrom(\n      nftTokenOwner,\n      msg.sender,\n      _tokenId\n    );\n\n    //  \n    removeToken(_tokenId);\n  }\n\n  function burn(uint256 _tokenId) public {\n    address addr_owner = ownerOf(_tokenId);\n    require(\n      addr_owner == msg.sender,\n      'msg.sender is not the owner of the token'\n    );\n    _burn(_tokenId);\n    removeToken(_tokenId);\n  }\n\n  function removeToken(uint256 _tokenId) private {\n    nftTokenPrices[_tokenId] = 0;\n    for (uint256 i = 0; i < onSaleNftTokenArray.length; i++) {\n      if (nftTokenPrices[onSaleNftTokenArray[i]] == 0) {\n        onSaleNftTokenArray[i] = onSaleNftTokenArray[\n          onSaleNftTokenArray.length - 1\n        ];\n        onSaleNftTokenArray.pop();\n      }\n    }\n  }\n}\n",
  "sourcePath": "/Users/yjs/Documents/GitHub/nft-marketplace-nextjs/backend/contracts/OpenPlanet.sol",
  "compiler": {
    "name": "solc",
    "version": "0.8.17+commit.8df45f5f.Emscripten.clang"
  },
  "schemaVersion": "3.4.9",
  "updatedAt": "2022-09-13T04:37:36.234Z",
  "networkType": "ethereum",
  "devdoc": {
    "kind": "dev",
    "methods": {
      "approve(address,uint256)": {
        "details": "See {IERC721-approve}."
      },
      "balanceOf(address)": {
        "details": "See {IERC721-balanceOf}."
      },
      "getApproved(uint256)": {
        "details": "See {IERC721-getApproved}."
      },
      "isApprovedForAll(address,address)": {
        "details": "See {IERC721-isApprovedForAll}."
      },
      "name()": {
        "details": "See {IERC721Metadata-name}."
      },
      "owner()": {
        "details": "Returns the address of the current owner."
      },
      "ownerOf(uint256)": {
        "details": "See {IERC721-ownerOf}."
      },
      "renounceOwnership()": {
        "details": "Leaves the contract without owner. It will not be possible to call `onlyOwner` functions anymore. Can only be called by the current owner. NOTE: Renouncing ownership will leave the contract without an owner, thereby removing any functionality that is only available to the owner."
      },
      "safeTransferFrom(address,address,uint256)": {
        "details": "See {IERC721-safeTransferFrom}."
      },
      "safeTransferFrom(address,address,uint256,bytes)": {
        "details": "See {IERC721-safeTransferFrom}."
      },
      "setApprovalForAll(address,bool)": {
        "details": "See {IERC721-setApprovalForAll}."
      },
      "symbol()": {
        "details": "See {IERC721Metadata-symbol}."
      },
      "tokenByIndex(uint256)": {
        "details": "See {IERC721Enumerable-tokenByIndex}."
      },
      "tokenOfOwnerByIndex(address,uint256)": {
        "details": "See {IERC721Enumerable-tokenOfOwnerByIndex}."
      },
      "totalSupply()": {
        "details": "See {IERC721Enumerable-totalSupply}."
      },
      "transferFrom(address,address,uint256)": {
        "details": "See {IERC721-transferFrom}."
      },
      "transferOwnership(address)": {
        "details": "Transfers ownership of the contract to a new account (`newOwner`). Can only be called by the current owner."
      }
    },
    "version": 1
  },
  "userdoc": {
    "kind": "user",
    "methods": {},
    "version": 1
  }
}