{
  "contractName": "OpenPlanet",
  "abi": [
    {
      "inputs": [],
      "stateMutability": "nonpayable",
      "type": "constructor"
    },
    {
      "anonymous": false,
      "inputs": [
        {
          "indexed": true,
          "internalType": "address",
          "name": "owner",
          "type": "address"
        },
        {
          "indexed": true,
          "internalType": "address",
          "name": "approved",
          "type": "address"
        },
        {
          "indexed": true,
          "internalType": "uint256",
          "name": "tokenId",
          "type": "uint256"
        }
      ],
      "name": "Approval",
      "type": "event"
    },
    {
      "anonymous": false,
      "inputs": [
        {
          "indexed": true,
          "internalType": "address",
          "name": "owner",
          "type": "address"
        },
        {
          "indexed": true,
          "internalType": "address",
          "name": "operator",
          "type": "address"
        },
        {
          "indexed": false,
          "internalType": "bool",
          "name": "approved",
          "type": "bool"
        }
      ],
      "name": "ApprovalForAll",
      "type": "event"
    },
    {
      "anonymous": false,
      "inputs": [
        {
          "indexed": true,
          "internalType": "address",
          "name": "previousOwner",
          "type": "address"
        },
        {
          "indexed": true,
          "internalType": "address",
          "name": "newOwner",
          "type": "address"
        }
      ],
      "name": "OwnershipTransferred",
      "type": "event"
    },
    {
      "anonymous": false,
      "inputs": [
        {
          "indexed": true,
          "internalType": "address",
          "name": "from",
          "type": "address"
        },
        {
          "indexed": true,
          "internalType": "address",
          "name": "to",
          "type": "address"
        },
        {
          "indexed": true,
          "internalType": "uint256",
          "name": "tokenId",
          "type": "uint256"
        }
      ],
      "name": "Transfer",
      "type": "event"
    },
    {
      "inputs": [
        {
          "internalType": "address",
          "name": "to",
          "type": "address"
        },
        {
          "internalType": "uint256",
          "name": "tokenId",
          "type": "uint256"
        }
      ],
      "name": "approve",
      "outputs": [],
      "stateMutability": "nonpayable",
      "type": "function"
    },
    {
      "inputs": [
        {
          "internalType": "address",
          "name": "owner",
          "type": "address"
        }
      ],
      "name": "balanceOf",
      "outputs": [
        {
          "internalType": "uint256",
          "name": "",
          "type": "uint256"
        }
      ],
      "stateMutability": "view",
      "type": "function",
      "constant": true
    },
    {
      "inputs": [
        {
          "internalType": "uint256",
          "name": "tokenId",
          "type": "uint256"
        }
      ],
      "name": "getApproved",
      "outputs": [
        {
          "internalType": "address",
          "name": "",
          "type": "address"
        }
      ],
      "stateMutability": "view",
      "type": "function",
      "constant": true
    },
    {
      "inputs": [
        {
          "internalType": "address",
          "name": "owner",
          "type": "address"
        },
        {
          "internalType": "address",
          "name": "operator",
          "type": "address"
        }
      ],
      "name": "isApprovedForAll",
      "outputs": [
        {
          "internalType": "bool",
          "name": "",
          "type": "bool"
        }
      ],
      "stateMutability": "view",
      "type": "function",
      "constant": true
    },
    {
      "inputs": [],
      "name": "name",
      "outputs": [
        {
          "internalType": "string",
          "name": "",
          "type": "string"
        }
      ],
      "stateMutability": "view",
      "type": "function",
      "constant": true
    },
    {
      "inputs": [
        {
          "internalType": "uint256",
          "name": "",
          "type": "uint256"
        }
      ],
      "name": "nftTokenPrices",
      "outputs": [
        {
          "internalType": "uint256",
          "name": "",
          "type": "uint256"
        }
      ],
      "stateMutability": "view",
      "type": "function",
      "constant": true
    },
    {
      "inputs": [
        {
          "internalType": "uint256",
          "name": "",
          "type": "uint256"
        }
      ],
      "name": "onSaleNftTokenArray",
      "outputs": [
        {
          "internalType": "uint256",
          "name": "",
          "type": "uint256"
        }
      ],
      "stateMutability": "view",
      "type": "function",
      "constant": true
    },
    {
      "inputs": [],
      "name": "owner",
      "outputs": [
        {
          "internalType": "address",
          "name": "",
          "type": "address"
        }
      ],
      "stateMutability": "view",
      "type": "function",
      "constant": true
    },
    {
      "inputs": [
        {
          "internalType": "uint256",
          "name": "tokenId",
          "type": "uint256"
        }
      ],
      "name": "ownerOf",
      "outputs": [
        {
          "internalType": "address",
          "name": "",
          "type": "address"
        }
      ],
      "stateMutability": "view",
      "type": "function",
      "constant": true
    },
    {
      "inputs": [],
      "name": "renounceOwnership",
      "outputs": [],
      "stateMutability": "nonpayable",
      "type": "function"
    },
    {
      "inputs": [
        {
          "internalType": "address",
          "name": "from",
          "type": "address"
        },
        {
          "internalType": "address",
          "name": "to",
          "type": "address"
        },
        {
          "internalType": "uint256",
          "name": "tokenId",
          "type": "uint256"
        }
      ],
      "name": "safeTransferFrom",
      "outputs": [],
      "stateMutability": "nonpayable",
      "type": "function"
    },
    {
      "inputs": [
        {
          "internalType": "address",
          "name": "from",
          "type": "address"
        },
        {
          "internalType": "address",
          "name": "to",
          "type": "address"
        },
        {
          "internalType": "uint256",
          "name": "tokenId",
          "type": "uint256"
        },
        {
          "internalType": "bytes",
          "name": "data",
          "type": "bytes"
        }
      ],
      "name": "safeTransferFrom",
      "outputs": [],
      "stateMutability": "nonpayable",
      "type": "function"
    },
    {
      "inputs": [
        {
          "internalType": "address",
          "name": "operator",
          "type": "address"
        },
        {
          "internalType": "bool",
          "name": "approved",
          "type": "bool"
        }
      ],
      "name": "setApprovalForAll",
      "outputs": [],
      "stateMutability": "nonpayable",
      "type": "function"
    },
    {
      "inputs": [],
      "name": "symbol",
      "outputs": [
        {
          "internalType": "string",
          "name": "",
          "type": "string"
        }
      ],
      "stateMutability": "view",
      "type": "function",
      "constant": true
    },
    {
      "inputs": [
        {
          "internalType": "uint256",
          "name": "index",
          "type": "uint256"
        }
      ],
      "name": "tokenByIndex",
      "outputs": [
        {
          "internalType": "uint256",
          "name": "",
          "type": "uint256"
        }
      ],
      "stateMutability": "view",
      "type": "function",
      "constant": true
    },
    {
      "inputs": [
        {
          "internalType": "address",
          "name": "owner",
          "type": "address"
        },
        {
          "internalType": "uint256",
          "name": "index",
          "type": "uint256"
        }
      ],
      "name": "tokenOfOwnerByIndex",
      "outputs": [
        {
          "internalType": "uint256",
          "name": "",
          "type": "uint256"
        }
      ],
      "stateMutability": "view",
      "type": "function",
      "constant": true
    },
    {
      "inputs": [],
      "name": "totalSupply",
      "outputs": [
        {
          "internalType": "uint256",
          "name": "",
          "type": "uint256"
        }
      ],
      "stateMutability": "view",
      "type": "function",
      "constant": true
    },
    {
      "inputs": [
        {
          "internalType": "address",
          "name": "from",
          "type": "address"
        },
        {
          "internalType": "address",
          "name": "to",
          "type": "address"
        },
        {
          "internalType": "uint256",
          "name": "tokenId",
          "type": "uint256"
        }
      ],
      "name": "transferFrom",
      "outputs": [],
      "stateMutability": "nonpayable",
      "type": "function"
    },
    {
      "inputs": [
        {
          "internalType": "address",
          "name": "newOwner",
          "type": "address"
        }
      ],
      "name": "transferOwnership",
      "outputs": [],
      "stateMutability": "nonpayable",
      "type": "function"
    },
    {
      "inputs": [
        {
          "internalType": "bytes4",
          "name": "interfaceId",
          "type": "bytes4"
        }
      ],
      "name": "supportsInterface",
      "outputs": [
        {
          "internalType": "bool",
          "name": "",
          "type": "bool"
        }
      ],
      "stateMutability": "view",
      "type": "function",
      "constant": true
    },
    {
      "inputs": [
        {
          "internalType": "uint256",
          "name": "tokenId",
          "type": "uint256"
        }
      ],
      "name": "tokenURI",
      "outputs": [
        {
          "internalType": "string",
          "name": "",
          "type": "string"
        }
      ],
      "stateMutability": "view",
      "type": "function",
      "constant": true
    },
    {
      "inputs": [
        {
          "internalType": "address",
          "name": "recipient",
          "type": "address"
        },
        {
          "internalType": "string",
          "name": "tokenURI",
          "type": "string"
        }
      ],
      "name": "mintNFT",
      "outputs": [
        {
          "internalType": "uint256",
          "name": "",
          "type": "uint256"
        }
      ],
      "stateMutability": "nonpayable",
      "type": "function"
    },
    {
      "inputs": [
        {
          "internalType": "address",
          "name": "owner",
          "type": "address"
        }
      ],
      "name": "listUserNFTs",
      "outputs": [
        {
          "internalType": "uint256[]",
          "name": "",
          "type": "uint256[]"
        }
      ],
      "stateMutability": "view",
      "type": "function",
      "constant": true
    },
    {
      "inputs": [
        {
          "internalType": "address",
          "name": "_nftTokenOwner",
          "type": "address"
        }
      ],
      "name": "getNftTokens",
      "outputs": [
        {
          "components": [
            {
              "internalType": "uint256",
              "name": "nftTokenId",
              "type": "uint256"
            },
            {
              "internalType": "string",
              "name": "nftTokenURI",
              "type": "string"
            }
          ],
          "internalType": "struct OpenPlanet.NftTokenData[]",
          "name": "",
          "type": "tuple[]"
        }
      ],
      "stateMutability": "view",
      "type": "function",
      "constant": true
    },
    {
      "inputs": [
        {
          "internalType": "uint256",
          "name": "_tokenId",
          "type": "uint256"
        },
        {
          "internalType": "uint256",
          "name": "_price",
          "type": "uint256"
        }
      ],
      "name": "addToMarket",
      "outputs": [],
      "stateMutability": "nonpayable",
      "type": "function"
    },
    {
      "inputs": [],
      "name": "getMarketList",
      "outputs": [
        {
          "components": [
            {
              "internalType": "uint256",
              "name": "nftTokenId",
              "type": "uint256"
            },
            {
              "internalType": "string",
              "name": "nftTokenURI",
              "type": "string"
            }
          ],
          "internalType": "struct OpenPlanet.NftTokenData[]",
          "name": "",
          "type": "tuple[]"
        }
      ],
      "stateMutability": "view",
      "type": "function",
      "constant": true
    },
    {
      "inputs": [],
      "name": "getSaleNftToken",
      "outputs": [
        {
          "internalType": "uint256[]",
          "name": "",
          "type": "uint256[]"
        }
      ],
      "stateMutability": "view",
      "type": "function",
      "constant": true
    },
    {
      "inputs": [
        {
          "internalType": "uint256",
          "name": "_tokenId",
          "type": "uint256"
        }
      ],
      "name": "getNftTokenPrice",
      "outputs": [
        {
          "internalType": "uint256",
          "name": "",
          "type": "uint256"
        }
      ],
      "stateMutability": "view",
      "type": "function",
      "constant": true
    },
    {
      "inputs": [
        {
          "internalType": "uint256",
          "name": "_tokenId",
          "type": "uint256"
        }
      ],
      "name": "buyNft",
      "outputs": [],
      "stateMutability": "payable",
      "type": "function",
      "payable": true
    },
    {
      "inputs": [
        {
          "internalType": "uint256",
          "name": "_tokenId",
          "type": "uint256"
        }
      ],
      "name": "burn",
      "outputs": [],
      "stateMutability": "nonpayable",
      "type": "function"
    }
  ],
  "bytecode": "0x60806040523480156200001157600080fd5b506040518060400160405280600881526020017f6f70656e704e46540000000000000000000000000000000000000000000000008152506040518060400160405280600481526020017f504e46540000000000000000000000000000000000000000000000000000000081525081600090816200008f919062000412565b508060019081620000a1919062000412565b505050620000c4620000b8620000ca60201b60201c565b620000d260201b60201c565b620004f9565b600033905090565b6000600760009054906101000a900473ffffffffffffffffffffffffffffffffffffffff16905081600760006101000a81548173ffffffffffffffffffffffffffffffffffffffff021916908373ffffffffffffffffffffffffffffffffffffffff1602179055508173ffffffffffffffffffffffffffffffffffffffff168173ffffffffffffffffffffffffffffffffffffffff167f8be0079c531659141344cd1fd0a4f28419497f9722a3daafe3b4186f6b6457e060405160405180910390a35050565b600081519050919050565b7f4e487b7100000000000000000000000000000000000000000000000000000000600052604160045260246000fd5b7f4e487b7100000000000000000000000000000000000000000000000000000000600052602260045260246000fd5b600060028204905060018216806200021a57607f821691505b60208210810362000230576200022f620001d2565b5b50919050565b60008190508160005260206000209050919050565b60006020601f8301049050919050565b600082821b905092915050565b6000600883026200029a7fffffffffffffffffffffffffffffffffffffffffffffffffffffffffffffffff826200025b565b620002a686836200025b565b95508019841693508086168417925050509392505050565b6000819050919050565b6000819050919050565b6000620002f3620002ed620002e784620002be565b620002c8565b620002be565b9050919050565b6000819050919050565b6200030f83620002d2565b620003276200031e82620002fa565b84845462000268565b825550505050565b600090565b6200033e6200032f565b6200034b81848462000304565b505050565b5b8181101562000373576200036760008262000334565b60018101905062000351565b5050565b601f821115620003c2576200038c8162000236565b62000397846200024b565b81016020851015620003a7578190505b620003bf620003b6856200024b565b83018262000350565b50505b505050565b600082821c905092915050565b6000620003e760001984600802620003c7565b1980831691505092915050565b6000620004028383620003d4565b9150826002028217905092915050565b6200041d8262000198565b67ffffffffffffffff811115620004395762000438620001a3565b5b62000445825462000201565b6200045282828562000377565b600060209050601f8311600181146200048a576000841562000475578287015190505b620004818582620003f4565b865550620004f1565b601f1984166200049a8662000236565b60005b82811015620004c4578489015182556001820191506020850194506020810190506200049d565b86831015620004e45784890151620004e0601f891682620003d4565b8355505b6001600288020188555050505b505050505050565b61478e80620005096000396000f3fe6080604052600436106101cd5760003560e01c80636352211e116100f757806395d89b4111610095578063e985e9c511610064578063e985e9c5146106c5578063eacabe1414610702578063f257f5481461073f578063f2fde38b1461077c576101cd565b806395d89b411461060b578063a22cb46514610636578063b88d4fde1461065f578063c87b56dd14610688576101cd565b806373e778c5116100d157806373e778c51461053d5780637fb5f7a61461057a5780638da5cb5b146105a3578063912c45cf146105ce576101cd565b80636352211e146104ac57806370a08231146104e9578063715018a614610526576101cd565b806323b872dd1161016f57806342966c681161013e57806342966c68146103de5780634ae23e64146104075780634f6ccce7146104445780635b9907a414610481576101cd565b806323b872dd14610333578063243adbdd1461035c5780632f745c591461037857806342842e0e146103b5576101cd565b8063095ea7b3116101ab578063095ea7b314610277578063173160a9146102a057806318160ddd146102dd5780631efceb9014610308576101cd565b806301ffc9a7146101d257806306fdde031461020f578063081812fc1461023a575b600080fd5b3480156101de57600080fd5b506101f960048036038101906101f49190612d92565b6107a5565b6040516102069190612dda565b60405180910390f35b34801561021b57600080fd5b506102246107b7565b6040516102319190612e85565b60405180910390f35b34801561024657600080fd5b50610261600480360381019061025c9190612edd565b610849565b60405161026e9190612f4b565b60405180910390f35b34801561028357600080fd5b5061029e60048036038101906102999190612f92565b61088f565b005b3480156102ac57600080fd5b506102c760048036038101906102c29190612fd2565b6109a6565b6040516102d491906130bd565b60405180910390f35b3480156102e957600080fd5b506102f2610a54565b6040516102ff91906130ee565b60405180910390f35b34801561031457600080fd5b5061031d610a61565b60405161032a91906130bd565b60405180910390f35b34801561033f57600080fd5b5061035a60048036038101906103559190613109565b610ab9565b005b61037660048036038101906103719190612edd565b610b19565b005b34801561038457600080fd5b5061039f600480360381019061039a9190612f92565b610cfc565b6040516103ac91906130ee565b60405180910390f35b3480156103c157600080fd5b506103dc60048036038101906103d79190613109565b610da1565b005b3480156103ea57600080fd5b5061040560048036038101906104009190612edd565b610dc1565b005b34801561041357600080fd5b5061042e60048036038101906104299190612edd565b610e52565b60405161043b91906130ee565b60405180910390f35b34801561045057600080fd5b5061046b60048036038101906104669190612edd565b610e6a565b60405161047891906130ee565b60405180910390f35b34801561048d57600080fd5b50610496610edb565b6040516104a391906132a5565b60405180910390f35b3480156104b857600080fd5b506104d360048036038101906104ce9190612edd565b610fc5565b6040516104e09190612f4b565b60405180910390f35b3480156104f557600080fd5b50610510600480360381019061050b9190612fd2565b611076565b60405161051d91906130ee565b60405180910390f35b34801561053257600080fd5b5061053b61112d565b005b34801561054957600080fd5b50610564600480360381019061055f9190612edd565b611141565b60405161057191906130ee565b60405180910390f35b34801561058657600080fd5b506105a1600480360381019061059c91906132c7565b611165565b005b3480156105af57600080fd5b506105b8611231565b6040516105c59190612f4b565b60405180910390f35b3480156105da57600080fd5b506105f560048036038101906105f09190612edd565b61125b565b60405161060291906130ee565b60405180910390f35b34801561061757600080fd5b50610620611278565b60405161062d9190612e85565b60405180910390f35b34801561064257600080fd5b5061065d60048036038101906106589190613333565b61130a565b005b34801561066b57600080fd5b50610686600480360381019061068191906134a8565b611320565b005b34801561069457600080fd5b506106af60048036038101906106aa9190612edd565b611382565b6040516106bc9190612e85565b60405180910390f35b3480156106d157600080fd5b506106ec60048036038101906106e7919061352b565b611394565b6040516106f99190612dda565b60405180910390f35b34801561070e57600080fd5b506107296004803603810190610724919061360c565b611428565b60405161073691906130ee565b60405180910390f35b34801561074b57600080fd5b5061076660048036038101906107619190612fd2565b611460565b60405161077391906132a5565b60405180910390f35b34801561078857600080fd5b506107a3600480360381019061079e9190612fd2565b611540565b005b60006107b0826115c3565b9050919050565b6060600080546107c690613697565b80601f01602080910402602001604051908101604052809291908181526020018280546107f290613697565b801561083f5780601f106108145761010080835404028352916020019161083f565b820191906000526020600020905b81548152906001019060200180831161082257829003601f168201915b5050505050905090565b60006108548261163d565b6004600083815260200190815260200160002060009054906101000a900473ffffffffffffffffffffffffffffffffffffffff169050919050565b600061089a82610fc5565b90508073ffffffffffffffffffffffffffffffffffffffff168373ffffffffffffffffffffffffffffffffffffffff160361090a576040517f08c379a00000000000000000000000000000000000000000000000000000000081526004016109019061373a565b60405180910390fd5b8073ffffffffffffffffffffffffffffffffffffffff16610929611688565b73ffffffffffffffffffffffffffffffffffffffff161480610958575061095781610952611688565b611394565b5b610997576040517f08c379a000000000000000000000000000000000000000000000000000000000815260040161098e906137cc565b60405180910390fd5b6109a18383611690565b505050565b606060006109b383611076565b905060008167ffffffffffffffff8111156109d1576109d061337d565b5b6040519080825280602002602001820160405280156109ff5781602001602082028036833780820191505090505b50905060005b82811015610a4957610a178582610cfc565b828281518110610a2a57610a296137ec565b5b6020026020010181815250508080610a419061384a565b915050610a05565b508092505050919050565b6000600a80549050905090565b6060600e805480602002602001604051908101604052809291908181526020018280548015610aaf57602002820191906000526020600020905b815481526020019060010190808311610a9b575b5050505050905090565b610aca610ac4611688565b82611749565b610b09576040517f08c379a0000000000000000000000000000000000000000000000000000000008152600401610b0090613904565b60405180910390fd5b610b148383836117de565b505050565b6000600d60008381526020019081526020016000205490506000610b3c83610fc5565b905060008211610b81576040517f08c379a0000000000000000000000000000000000000000000000000000000008152600401610b7890613970565b60405180910390fd5b3373ffffffffffffffffffffffffffffffffffffffff168173ffffffffffffffffffffffffffffffffffffffff1603610bef576040517f08c379a0000000000000000000000000000000000000000000000000000000008152600401610be6906139dc565b60405180910390fd5b610bf98130611394565b610c38576040517f08c379a0000000000000000000000000000000000000000000000000000000008152600401610c2f90613a6e565b60405180910390fd5b8073ffffffffffffffffffffffffffffffffffffffff166108fc349081150290604051600060405180830381858888f19350505050158015610c7e573d6000803e3d6000fd5b503073ffffffffffffffffffffffffffffffffffffffff166342842e0e8233866040518463ffffffff1660e01b8152600401610cbc93929190613a8e565b600060405180830381600087803b158015610cd657600080fd5b505af1158015610cea573d6000803e3d6000fd5b50505050610cf783611a44565b505050565b6000610d0783611076565b8210610d48576040517f08c379a0000000000000000000000000000000000000000000000000000000008152600401610d3f90613b37565b60405180910390fd5b600860008473ffffffffffffffffffffffffffffffffffffffff1673ffffffffffffffffffffffffffffffffffffffff168152602001908152602001600020600083815260200190815260200160002054905092915050565b610dbc83838360405180602001604052806000815250611320565b505050565b6000610dcc82610fc5565b90503373ffffffffffffffffffffffffffffffffffffffff168173ffffffffffffffffffffffffffffffffffffffff1614610e3c576040517f08c379a0000000000000000000000000000000000000000000000000000000008152600401610e3390613bc9565b60405180910390fd5b610e4582611b38565b610e4e82611a44565b5050565b600d6020528060005260406000206000915090505481565b6000610e74610a54565b8210610eb5576040517f08c379a0000000000000000000000000000000000000000000000000000000008152600401610eac90613c5b565b60405180910390fd5b600a8281548110610ec957610ec86137ec565b5b90600052602060002001549050919050565b60606000610ee7610a61565b90506000815167ffffffffffffffff811115610f0657610f0561337d565b5b604051908082528060200260200182016040528015610f3f57816020015b610f2c612caf565b815260200190600190039081610f245790505b50905060005b8251811015610fbc576000838281518110610f6357610f626137ec565b5b602002602001015190506040518060400160405280828152602001610f8783611382565b815250838381518110610f9d57610f9c6137ec565b5b6020026020010181905250508080610fb49061384a565b915050610f45565b50809250505090565b6000806002600084815260200190815260200160002060009054906101000a900473ffffffffffffffffffffffffffffffffffffffff169050600073ffffffffffffffffffffffffffffffffffffffff168173ffffffffffffffffffffffffffffffffffffffff160361106d576040517f08c379a000000000000000000000000000000000000000000000000000000000815260040161106490613cc7565b60405180910390fd5b80915050919050565b60008073ffffffffffffffffffffffffffffffffffffffff168273ffffffffffffffffffffffffffffffffffffffff16036110e6576040517f08c379a00000000000000000000000000000000000000000000000000000000081526004016110dd90613d59565b60405180910390fd5b600360008373ffffffffffffffffffffffffffffffffffffffff1673ffffffffffffffffffffffffffffffffffffffff168152602001908152602001600020549050919050565b611135611b44565b61113f6000611bc2565b565b600e818154811061115157600080fd5b906000526020600020016000915090505481565b600061117083610fc5565b90503373ffffffffffffffffffffffffffffffffffffffff168173ffffffffffffffffffffffffffffffffffffffff16146111e0576040517f08c379a00000000000000000000000000000000000000000000000000000000081526004016111d790613dc5565b60405180910390fd5b6111eb30600161130a565b81600d600085815260200190815260200160002081905550600e839080600181540180825580915050600190039060005260206000200160009091909190915055505050565b6000600760009054906101000a900473ffffffffffffffffffffffffffffffffffffffff16905090565b6000600d6000838152602001908152602001600020549050919050565b60606001805461128790613697565b80601f01602080910402602001604051908101604052809291908181526020018280546112b390613697565b80156113005780601f106112d557610100808354040283529160200191611300565b820191906000526020600020905b8154815290600101906020018083116112e357829003601f168201915b5050505050905090565b61131c611315611688565b8383611c88565b5050565b61133161132b611688565b83611749565b611370576040517f08c379a000000000000000000000000000000000000000000000000000000000815260040161136790613904565b60405180910390fd5b61137c84848484611df4565b50505050565b606061138d82611e50565b9050919050565b6000600560008473ffffffffffffffffffffffffffffffffffffffff1673ffffffffffffffffffffffffffffffffffffffff16815260200190815260200160002060008373ffffffffffffffffffffffffffffffffffffffff1673ffffffffffffffffffffffffffffffffffffffff16815260200190815260200160002060009054906101000a900460ff16905092915050565b6000611434600c611f62565b6000611440600c611f78565b905061144c8482611f86565b611456818461215f565b8091505092915050565b6060600061146d83611076565b905060008167ffffffffffffffff81111561148b5761148a61337d565b5b6040519080825280602002602001820160405280156114c457816020015b6114b1612caf565b8152602001906001900390816114a95790505b50905060005b828110156115355760006114de8683610cfc565b905060006114eb82611382565b9050604051806040016040528083815260200182815250848481518110611515576115146137ec565b5b60200260200101819052505050808061152d9061384a565b9150506114ca565b508092505050919050565b611548611b44565b600073ffffffffffffffffffffffffffffffffffffffff168173ffffffffffffffffffffffffffffffffffffffff16036115b7576040517f08c379a00000000000000000000000000000000000000000000000000000000081526004016115ae90613e57565b60405180910390fd5b6115c081611bc2565b50565b60007f780e9d63000000000000000000000000000000000000000000000000000000007bffffffffffffffffffffffffffffffffffffffffffffffffffffffff1916827bffffffffffffffffffffffffffffffffffffffffffffffffffffffff191614806116365750611635826121cc565b5b9050919050565b611646816122ae565b611685576040517f08c379a000000000000000000000000000000000000000000000000000000000815260040161167c90613cc7565b60405180910390fd5b50565b600033905090565b816004600083815260200190815260200160002060006101000a81548173ffffffffffffffffffffffffffffffffffffffff021916908373ffffffffffffffffffffffffffffffffffffffff160217905550808273ffffffffffffffffffffffffffffffffffffffff1661170383610fc5565b73ffffffffffffffffffffffffffffffffffffffff167f8c5be1e5ebec7d5bd14f71427d1e84f3dd0314c0f7b2291e5b200ac8c7c3b92560405160405180910390a45050565b60008061175583610fc5565b90508073ffffffffffffffffffffffffffffffffffffffff168473ffffffffffffffffffffffffffffffffffffffff16148061179757506117968185611394565b5b806117d557508373ffffffffffffffffffffffffffffffffffffffff166117bd84610849565b73ffffffffffffffffffffffffffffffffffffffff16145b91505092915050565b8273ffffffffffffffffffffffffffffffffffffffff166117fe82610fc5565b73ffffffffffffffffffffffffffffffffffffffff1614611854576040517f08c379a000000000000000000000000000000000000000000000000000000000815260040161184b90613ee9565b60405180910390fd5b600073ffffffffffffffffffffffffffffffffffffffff168273ffffffffffffffffffffffffffffffffffffffff16036118c3576040517f08c379a00000000000000000000000000000000000000000000000000000000081526004016118ba90613f7b565b60405180910390fd5b6118ce83838361231a565b6118d9600082611690565b6001600360008573ffffffffffffffffffffffffffffffffffffffff1673ffffffffffffffffffffffffffffffffffffffff16815260200190815260200160002060008282546119299190613f9b565b925050819055506001600360008473ffffffffffffffffffffffffffffffffffffffff1673ffffffffffffffffffffffffffffffffffffffff16815260200190815260200160002060008282546119809190613fcf565b92505081905550816002600083815260200190815260200160002060006101000a81548173ffffffffffffffffffffffffffffffffffffffff021916908373ffffffffffffffffffffffffffffffffffffffff160217905550808273ffffffffffffffffffffffffffffffffffffffff168473ffffffffffffffffffffffffffffffffffffffff167fddf252ad1be2c89b69c2b068fc378daa952ba7f163c4a11628f55a4df523b3ef60405160405180910390a4611a3f83838361232a565b505050565b6000600d60008381526020019081526020016000208190555060005b600e80549050811015611b34576000600d6000600e8481548110611a8757611a866137ec565b5b906000526020600020015481526020019081526020016000205403611b2157600e6001600e80549050611aba9190613f9b565b81548110611acb57611aca6137ec565b5b9060005260206000200154600e8281548110611aea57611ae96137ec565b5b9060005260206000200181905550600e805480611b0a57611b09614003565b5b600190038181906000526020600020016000905590555b8080611b2c9061384a565b915050611a60565b5050565b611b418161232f565b50565b611b4c611688565b73ffffffffffffffffffffffffffffffffffffffff16611b6a611231565b73ffffffffffffffffffffffffffffffffffffffff1614611bc0576040517f08c379a0000000000000000000000000000000000000000000000000000000008152600401611bb79061407e565b60405180910390fd5b565b6000600760009054906101000a900473ffffffffffffffffffffffffffffffffffffffff16905081600760006101000a81548173ffffffffffffffffffffffffffffffffffffffff021916908373ffffffffffffffffffffffffffffffffffffffff1602179055508173ffffffffffffffffffffffffffffffffffffffff168173ffffffffffffffffffffffffffffffffffffffff167f8be0079c531659141344cd1fd0a4f28419497f9722a3daafe3b4186f6b6457e060405160405180910390a35050565b8173ffffffffffffffffffffffffffffffffffffffff168373ffffffffffffffffffffffffffffffffffffffff1603611cf6576040517f08c379a0000000000000000000000000000000000000000000000000000000008152600401611ced906140ea565b60405180910390fd5b80600560008573ffffffffffffffffffffffffffffffffffffffff1673ffffffffffffffffffffffffffffffffffffffff16815260200190815260200160002060008473ffffffffffffffffffffffffffffffffffffffff1673ffffffffffffffffffffffffffffffffffffffff16815260200190815260200160002060006101000a81548160ff0219169083151502179055508173ffffffffffffffffffffffffffffffffffffffff168373ffffffffffffffffffffffffffffffffffffffff167f17307eab39ab6107e8899845ad3d59bd9653f200f220920489ca2b5937696c3183604051611de79190612dda565b60405180910390a3505050565b611dff8484846117de565b611e0b84848484612382565b611e4a576040517f08c379a0000000000000000000000000000000000000000000000000000000008152600401611e419061417c565b60405180910390fd5b50505050565b6060611e5b8261163d565b6000600660008481526020019081526020016000208054611e7b90613697565b80601f0160208091040260200160405190810160405280929190818152602001828054611ea790613697565b8015611ef45780601f10611ec957610100808354040283529160200191611ef4565b820191906000526020600020905b815481529060010190602001808311611ed757829003601f168201915b505050505090506000611f05612509565b90506000815103611f1a578192505050611f5d565b600082511115611f4f578082604051602001611f379291906141d8565b60405160208183030381529060405292505050611f5d565b611f5884612520565b925050505b919050565b6001816000016000828254019250508190555050565b600081600001549050919050565b600073ffffffffffffffffffffffffffffffffffffffff168273ffffffffffffffffffffffffffffffffffffffff1603611ff5576040517f08c379a0000000000000000000000000000000000000000000000000000000008152600401611fec90614248565b60405180910390fd5b611ffe816122ae565b1561203e576040517f08c379a0000000000000000000000000000000000000000000000000000000008152600401612035906142b4565b60405180910390fd5b61204a6000838361231a565b6001600360008473ffffffffffffffffffffffffffffffffffffffff1673ffffffffffffffffffffffffffffffffffffffff168152602001908152602001600020600082825461209a9190613fcf565b92505081905550816002600083815260200190815260200160002060006101000a81548173ffffffffffffffffffffffffffffffffffffffff021916908373ffffffffffffffffffffffffffffffffffffffff160217905550808273ffffffffffffffffffffffffffffffffffffffff16600073ffffffffffffffffffffffffffffffffffffffff167fddf252ad1be2c89b69c2b068fc378daa952ba7f163c4a11628f55a4df523b3ef60405160405180910390a461215b6000838361232a565b5050565b612168826122ae565b6121a7576040517f08c379a000000000000000000000000000000000000000000000000000000000815260040161219e90614346565b60405180910390fd5b806006600084815260200190815260200160002090816121c79190614512565b505050565b60007f80ac58cd000000000000000000000000000000000000000000000000000000007bffffffffffffffffffffffffffffffffffffffffffffffffffffffff1916827bffffffffffffffffffffffffffffffffffffffffffffffffffffffff1916148061229757507f5b5e139f000000000000000000000000000000000000000000000000000000007bffffffffffffffffffffffffffffffffffffffffffffffffffffffff1916827bffffffffffffffffffffffffffffffffffffffffffffffffffffffff1916145b806122a757506122a682612588565b5b9050919050565b60008073ffffffffffffffffffffffffffffffffffffffff166002600084815260200190815260200160002060009054906101000a900473ffffffffffffffffffffffffffffffffffffffff1673ffffffffffffffffffffffffffffffffffffffff1614159050919050565b6123258383836125f2565b505050565b505050565b61233881612704565b600060066000838152602001908152602001600020805461235890613697565b90501461237f5760066000828152602001908152602001600020600061237e9190612cc9565b5b50565b60006123a38473ffffffffffffffffffffffffffffffffffffffff16612821565b156124fc578373ffffffffffffffffffffffffffffffffffffffff1663150b7a026123cc611688565b8786866040518563ffffffff1660e01b81526004016123ee9493929190614639565b6020604051808303816000875af192505050801561242a57506040513d601f19601f82011682018060405250810190612427919061469a565b60015b6124ac573d806000811461245a576040519150601f19603f3d011682016040523d82523d6000602084013e61245f565b606091505b5060008151036124a4576040517f08c379a000000000000000000000000000000000000000000000000000000000815260040161249b9061417c565b60405180910390fd5b805181602001fd5b63150b7a0260e01b7bffffffffffffffffffffffffffffffffffffffffffffffffffffffff1916817bffffffffffffffffffffffffffffffffffffffffffffffffffffffff191614915050612501565b600190505b949350505050565b606060405180602001604052806000815250905090565b606061252b8261163d565b6000612535612509565b905060008151116125555760405180602001604052806000815250612580565b8061255f84612844565b6040516020016125709291906141d8565b6040516020818303038152906040525b915050919050565b60007f01ffc9a7000000000000000000000000000000000000000000000000000000007bffffffffffffffffffffffffffffffffffffffffffffffffffffffff1916827bffffffffffffffffffffffffffffffffffffffffffffffffffffffff1916149050919050565b6125fd8383836129a4565b600073ffffffffffffffffffffffffffffffffffffffff168373ffffffffffffffffffffffffffffffffffffffff160361263f5761263a816129a9565b61267e565b8173ffffffffffffffffffffffffffffffffffffffff168373ffffffffffffffffffffffffffffffffffffffff161461267d5761267c83826129f2565b5b5b600073ffffffffffffffffffffffffffffffffffffffff168273ffffffffffffffffffffffffffffffffffffffff16036126c0576126bb81612b5f565b6126ff565b8273ffffffffffffffffffffffffffffffffffffffff168273ffffffffffffffffffffffffffffffffffffffff16146126fe576126fd8282612c30565b5b5b505050565b600061270f82610fc5565b905061271d8160008461231a565b612728600083611690565b6001600360008373ffffffffffffffffffffffffffffffffffffffff1673ffffffffffffffffffffffffffffffffffffffff16815260200190815260200160002060008282546127789190613f9b565b925050819055506002600083815260200190815260200160002060006101000a81549073ffffffffffffffffffffffffffffffffffffffff021916905581600073ffffffffffffffffffffffffffffffffffffffff168273ffffffffffffffffffffffffffffffffffffffff167fddf252ad1be2c89b69c2b068fc378daa952ba7f163c4a11628f55a4df523b3ef60405160405180910390a461281d8160008461232a565b5050565b6000808273ffffffffffffffffffffffffffffffffffffffff163b119050919050565b60606000820361288b576040518060400160405280600181526020017f3000000000000000000000000000000000000000000000000000000000000000815250905061299f565b600082905060005b600082146128bd5780806128a69061384a565b915050600a826128b691906146f6565b9150612893565b60008167ffffffffffffffff8111156128d9576128d861337d565b5b6040519080825280601f01601f19166020018201604052801561290b5781602001600182028036833780820191505090505b5090505b60008514612998576001826129249190613f9b565b9150600a856129339190614727565b603061293f9190613fcf565b60f81b818381518110612955576129546137ec565b5b60200101907effffffffffffffffffffffffffffffffffffffffffffffffffffffffffffff1916908160001a905350600a8561299191906146f6565b945061290f565b8093505050505b919050565b505050565b600a80549050600b600083815260200190815260200160002081905550600a81908060018154018082558091505060019003906000526020600020016000909190919091505550565b600060016129ff84611076565b612a099190613f9b565b9050600060096000848152602001908152602001600020549050818114612aee576000600860008673ffffffffffffffffffffffffffffffffffffffff1673ffffffffffffffffffffffffffffffffffffffff168152602001908152602001600020600084815260200190815260200160002054905080600860008773ffffffffffffffffffffffffffffffffffffffff1673ffffffffffffffffffffffffffffffffffffffff168152602001908152602001600020600084815260200190815260200160002081905550816009600083815260200190815260200160002081905550505b6009600084815260200190815260200160002060009055600860008573ffffffffffffffffffffffffffffffffffffffff1673ffffffffffffffffffffffffffffffffffffffff16815260200190815260200160002060008381526020019081526020016000206000905550505050565b60006001600a80549050612b739190613f9b565b90506000600b60008481526020019081526020016000205490506000600a8381548110612ba357612ba26137ec565b5b9060005260206000200154905080600a8381548110612bc557612bc46137ec565b5b906000526020600020018190555081600b600083815260200190815260200160002081905550600b600085815260200190815260200160002060009055600a805480612c1457612c13614003565b5b6001900381819060005260206000200160009055905550505050565b6000612c3b83611076565b905081600860008573ffffffffffffffffffffffffffffffffffffffff1673ffffffffffffffffffffffffffffffffffffffff168152602001908152602001600020600083815260200190815260200160002081905550806009600084815260200190815260200160002081905550505050565b604051806040016040528060008152602001606081525090565b508054612cd590613697565b6000825580601f10612ce75750612d06565b601f016020900490600052602060002090810190612d059190612d09565b5b50565b5b80821115612d22576000816000905550600101612d0a565b5090565b6000604051905090565b600080fd5b600080fd5b60007fffffffff0000000000000000000000000000000000000000000000000000000082169050919050565b612d6f81612d3a565b8114612d7a57600080fd5b50565b600081359050612d8c81612d66565b92915050565b600060208284031215612da857612da7612d30565b5b6000612db684828501612d7d565b91505092915050565b60008115159050919050565b612dd481612dbf565b82525050565b6000602082019050612def6000830184612dcb565b92915050565b600081519050919050565b600082825260208201905092915050565b60005b83811015612e2f578082015181840152602081019050612e14565b60008484015250505050565b6000601f19601f8301169050919050565b6000612e5782612df5565b612e618185612e00565b9350612e71818560208601612e11565b612e7a81612e3b565b840191505092915050565b60006020820190508181036000830152612e9f8184612e4c565b905092915050565b6000819050919050565b612eba81612ea7565b8114612ec557600080fd5b50565b600081359050612ed781612eb1565b92915050565b600060208284031215612ef357612ef2612d30565b5b6000612f0184828501612ec8565b91505092915050565b600073ffffffffffffffffffffffffffffffffffffffff82169050919050565b6000612f3582612f0a565b9050919050565b612f4581612f2a565b82525050565b6000602082019050612f606000830184612f3c565b92915050565b612f6f81612f2a565b8114612f7a57600080fd5b50565b600081359050612f8c81612f66565b92915050565b60008060408385031215612fa957612fa8612d30565b5b6000612fb785828601612f7d565b9250506020612fc885828601612ec8565b9150509250929050565b600060208284031215612fe857612fe7612d30565b5b6000612ff684828501612f7d565b91505092915050565b600081519050919050565b600082825260208201905092915050565b6000819050602082019050919050565b61303481612ea7565b82525050565b6000613046838361302b565b60208301905092915050565b6000602082019050919050565b600061306a82612fff565b613074818561300a565b935061307f8361301b565b8060005b838110156130b0578151613097888261303a565b97506130a283613052565b925050600181019050613083565b5085935050505092915050565b600060208201905081810360008301526130d7818461305f565b905092915050565b6130e881612ea7565b82525050565b600060208201905061310360008301846130df565b92915050565b60008060006060848603121561312257613121612d30565b5b600061313086828701612f7d565b935050602061314186828701612f7d565b925050604061315286828701612ec8565b9150509250925092565b600081519050919050565b600082825260208201905092915050565b6000819050602082019050919050565b600082825260208201905092915050565b60006131a482612df5565b6131ae8185613188565b93506131be818560208601612e11565b6131c781612e3b565b840191505092915050565b60006040830160008301516131ea600086018261302b565b50602083015184820360208601526132028282613199565b9150508091505092915050565b600061321b83836131d2565b905092915050565b6000602082019050919050565b600061323b8261315c565b6132458185613167565b93508360208202850161325785613178565b8060005b858110156132935784840389528151613274858261320f565b945061327f83613223565b925060208a0199505060018101905061325b565b50829750879550505050505092915050565b600060208201905081810360008301526132bf8184613230565b905092915050565b600080604083850312156132de576132dd612d30565b5b60006132ec85828601612ec8565b92505060206132fd85828601612ec8565b9150509250929050565b61331081612dbf565b811461331b57600080fd5b50565b60008135905061332d81613307565b92915050565b6000806040838503121561334a57613349612d30565b5b600061335885828601612f7d565b92505060206133698582860161331e565b9150509250929050565b600080fd5b600080fd5b7f4e487b7100000000000000000000000000000000000000000000000000000000600052604160045260246000fd5b6133b582612e3b565b810181811067ffffffffffffffff821117156133d4576133d361337d565b5b80604052505050565b60006133e7612d26565b90506133f382826133ac565b919050565b600067ffffffffffffffff8211156134135761341261337d565b5b61341c82612e3b565b9050602081019050919050565b82818337600083830152505050565b600061344b613446846133f8565b6133dd565b90508281526020810184848401111561346757613466613378565b5b613472848285613429565b509392505050565b600082601f83011261348f5761348e613373565b5b813561349f848260208601613438565b91505092915050565b600080600080608085870312156134c2576134c1612d30565b5b60006134d087828801612f7d565b94505060206134e187828801612f7d565b93505060406134f287828801612ec8565b925050606085013567ffffffffffffffff81111561351357613512612d35565b5b61351f8782880161347a565b91505092959194509250565b6000806040838503121561354257613541612d30565b5b600061355085828601612f7d565b925050602061356185828601612f7d565b9150509250929050565b600067ffffffffffffffff8211156135865761358561337d565b5b61358f82612e3b565b9050602081019050919050565b60006135af6135aa8461356b565b6133dd565b9050828152602081018484840111156135cb576135ca613378565b5b6135d6848285613429565b509392505050565b600082601f8301126135f3576135f2613373565b5b813561360384826020860161359c565b91505092915050565b6000806040838503121561362357613622612d30565b5b600061363185828601612f7d565b925050602083013567ffffffffffffffff81111561365257613651612d35565b5b61365e858286016135de565b9150509250929050565b7f4e487b7100000000000000000000000000000000000000000000000000000000600052602260045260246000fd5b600060028204905060018216806136af57607f821691505b6020821081036136c2576136c1613668565b5b50919050565b7f4552433732313a20617070726f76616c20746f2063757272656e74206f776e6560008201527f7200000000000000000000000000000000000000000000000000000000000000602082015250565b6000613724602183612e00565b915061372f826136c8565b604082019050919050565b6000602082019050818103600083015261375381613717565b9050919050565b7f4552433732313a20617070726f76652063616c6c6572206973206e6f7420746f60008201527f6b656e206f776e6572206e6f7220617070726f76656420666f7220616c6c0000602082015250565b60006137b6603e83612e00565b91506137c18261375a565b604082019050919050565b600060208201905081810360008301526137e5816137a9565b9050919050565b7f4e487b7100000000000000000000000000000000000000000000000000000000600052603260045260246000fd5b7f4e487b7100000000000000000000000000000000000000000000000000000000600052601160045260246000fd5b600061385582612ea7565b91507fffffffffffffffffffffffffffffffffffffffffffffffffffffffffffffffff82036138875761388661381b565b5b600182019050919050565b7f4552433732313a2063616c6c6572206973206e6f7420746f6b656e206f776e6560008201527f72206e6f7220617070726f766564000000000000000000000000000000000000602082015250565b60006138ee602e83612e00565b91506138f982613892565b604082019050919050565b6000602082019050818103600083015261391d816138e1565b9050919050565b7f6e667420746f6b656e206e6f742073616c652e00000000000000000000000000600082015250565b600061395a601383612e00565b915061396582613924565b602082019050919050565b600060208201905081810360008301526139898161394d565b9050919050565b7f63616c6c6572206973206e667420746f6b656e206f776e65722e000000000000600082015250565b60006139c6601a83612e00565b91506139d182613990565b602082019050919050565b600060208201905081810360008301526139f5816139b9565b9050919050565b7f6e667420746f6b656e206f776e657220646964206e6f7420617070726f76652060008201527f746f6b656e2e0000000000000000000000000000000000000000000000000000602082015250565b6000613a58602683612e00565b9150613a63826139fc565b604082019050919050565b60006020820190508181036000830152613a8781613a4b565b9050919050565b6000606082019050613aa36000830186612f3c565b613ab06020830185612f3c565b613abd60408301846130df565b949350505050565b7f455243373231456e756d657261626c653a206f776e657220696e646578206f7560008201527f74206f6620626f756e6473000000000000000000000000000000000000000000602082015250565b6000613b21602b83612e00565b9150613b2c82613ac5565b604082019050919050565b60006020820190508181036000830152613b5081613b14565b9050919050565b7f6d73672e73656e646572206973206e6f7420746865206f776e6572206f66207460008201527f686520746f6b656e000000000000000000000000000000000000000000000000602082015250565b6000613bb3602883612e00565b9150613bbe82613b57565b604082019050919050565b60006020820190508181036000830152613be281613ba6565b9050919050565b7f455243373231456e756d657261626c653a20676c6f62616c20696e646578206f60008201527f7574206f6620626f756e64730000000000000000000000000000000000000000602082015250565b6000613c45602c83612e00565b9150613c5082613be9565b604082019050919050565b60006020820190508181036000830152613c7481613c38565b9050919050565b7f4552433732313a20696e76616c696420746f6b656e2049440000000000000000600082015250565b6000613cb1601883612e00565b9150613cbc82613c7b565b602082019050919050565b60006020820190508181036000830152613ce081613ca4565b9050919050565b7f4552433732313a2061646472657373207a65726f206973206e6f74206120766160008201527f6c6964206f776e65720000000000000000000000000000000000000000000000602082015250565b6000613d43602983612e00565b9150613d4e82613ce7565b604082019050919050565b60006020820190508181036000830152613d7281613d36565b9050919050565b7f43616c6c6572206973206e6f74206e667420746f6b656e206f776e65722e0000600082015250565b6000613daf601e83612e00565b9150613dba82613d79565b602082019050919050565b60006020820190508181036000830152613dde81613da2565b9050919050565b7f4f776e61626c653a206e6577206f776e657220697320746865207a65726f206160008201527f6464726573730000000000000000000000000000000000000000000000000000602082015250565b6000613e41602683612e00565b9150613e4c82613de5565b604082019050919050565b60006020820190508181036000830152613e7081613e34565b9050919050565b7f4552433732313a207472616e736665722066726f6d20696e636f72726563742060008201527f6f776e6572000000000000000000000000000000000000000000000000000000602082015250565b6000613ed3602583612e00565b9150613ede82613e77565b604082019050919050565b60006020820190508181036000830152613f0281613ec6565b9050919050565b7f4552433732313a207472616e7366657220746f20746865207a65726f2061646460008201527f7265737300000000000000000000000000000000000000000000000000000000602082015250565b6000613f65602483612e00565b9150613f7082613f09565b604082019050919050565b60006020820190508181036000830152613f9481613f58565b9050919050565b6000613fa682612ea7565b9150613fb183612ea7565b9250828203905081811115613fc957613fc861381b565b5b92915050565b6000613fda82612ea7565b9150613fe583612ea7565b9250828201905080821115613ffd57613ffc61381b565b5b92915050565b7f4e487b7100000000000000000000000000000000000000000000000000000000600052603160045260246000fd5b7f4f776e61626c653a2063616c6c6572206973206e6f7420746865206f776e6572600082015250565b6000614068602083612e00565b915061407382614032565b602082019050919050565b600060208201905081810360008301526140978161405b565b9050919050565b7f4552433732313a20617070726f766520746f2063616c6c657200000000000000600082015250565b60006140d4601983612e00565b91506140df8261409e565b602082019050919050565b60006020820190508181036000830152614103816140c7565b9050919050565b7f4552433732313a207472616e7366657220746f206e6f6e20455243373231526560008201527f63656976657220696d706c656d656e7465720000000000000000000000000000602082015250565b6000614166603283612e00565b91506141718261410a565b604082019050919050565b6000602082019050818103600083015261419581614159565b9050919050565b600081905092915050565b60006141b282612df5565b6141bc818561419c565b93506141cc818560208601612e11565b80840191505092915050565b60006141e482856141a7565b91506141f082846141a7565b91508190509392505050565b7f4552433732313a206d696e7420746f20746865207a65726f2061646472657373600082015250565b6000614232602083612e00565b915061423d826141fc565b602082019050919050565b6000602082019050818103600083015261426181614225565b9050919050565b7f4552433732313a20746f6b656e20616c7265616479206d696e74656400000000600082015250565b600061429e601c83612e00565b91506142a982614268565b602082019050919050565b600060208201905081810360008301526142cd81614291565b9050919050565b7f45524337323155524953746f726167653a2055524920736574206f66206e6f6e60008201527f6578697374656e7420746f6b656e000000000000000000000000000000000000602082015250565b6000614330602e83612e00565b915061433b826142d4565b604082019050919050565b6000602082019050818103600083015261435f81614323565b9050919050565b60008190508160005260206000209050919050565b60006020601f8301049050919050565b600082821b905092915050565b6000600883026143c87fffffffffffffffffffffffffffffffffffffffffffffffffffffffffffffffff8261438b565b6143d2868361438b565b95508019841693508086168417925050509392505050565b6000819050919050565b600061440f61440a61440584612ea7565b6143ea565b612ea7565b9050919050565b6000819050919050565b614429836143f4565b61443d61443582614416565b848454614398565b825550505050565b600090565b614452614445565b61445d818484614420565b505050565b5b818110156144815761447660008261444a565b600181019050614463565b5050565b601f8211156144c65761449781614366565b6144a08461437b565b810160208510156144af578190505b6144c36144bb8561437b565b830182614462565b50505b505050565b600082821c905092915050565b60006144e9600019846008026144cb565b1980831691505092915050565b600061450283836144d8565b9150826002028217905092915050565b61451b82612df5565b67ffffffffffffffff8111156145345761453361337d565b5b61453e8254613697565b614549828285614485565b600060209050601f83116001811461457c576000841561456a578287015190505b61457485826144f6565b8655506145dc565b601f19841661458a86614366565b60005b828110156145b25784890151825560018201915060208501945060208101905061458d565b868310156145cf57848901516145cb601f8916826144d8565b8355505b6001600288020188555050505b505050505050565b600081519050919050565b600082825260208201905092915050565b600061460b826145e4565b61461581856145ef565b9350614625818560208601612e11565b61462e81612e3b565b840191505092915050565b600060808201905061464e6000830187612f3c565b61465b6020830186612f3c565b61466860408301856130df565b818103606083015261467a8184614600565b905095945050505050565b60008151905061469481612d66565b92915050565b6000602082840312156146b0576146af612d30565b5b60006146be84828501614685565b91505092915050565b7f4e487b7100000000000000000000000000000000000000000000000000000000600052601260045260246000fd5b600061470182612ea7565b915061470c83612ea7565b92508261471c5761471b6146c7565b5b828204905092915050565b600061473282612ea7565b915061473d83612ea7565b92508261474d5761474c6146c7565b5b82820690509291505056fea264697066735822122077c9ac848db92316990f2b4526d06f0cf9112d0d3dd7b125ff0fbdfef612880d64736f6c63430008100033",
  "immutableReferences": {},
  "source": "// SPDX-License-Identifier: MIT\npragma solidity ^0.8.0;\n\nimport '@openzeppelin/contracts/token/ERC721/ERC721.sol';\nimport '@openzeppelin/contracts/utils/Counters.sol';\nimport '@openzeppelin/contracts/access/Ownable.sol';\nimport '@openzeppelin/contracts/token/ERC721/extensions/ERC721URIStorage.sol';\nimport '@openzeppelin/contracts/token/ERC721/extensions/ERC721Enumerable.sol';\n\ncontract OpenPlanet is ERC721URIStorage, Ownable, ERC721Enumerable {\n  using Counters for Counters.Counter;\n  Counters.Counter private _tokenIds;\n\n  constructor() public ERC721('openpNFT', 'PNFT') {}\n\n  function _beforeTokenTransfer(\n    address from,\n    address to,\n    uint256 tokenId\n  ) internal override(ERC721, ERC721Enumerable) {\n    super._beforeTokenTransfer(from, to, tokenId);\n  }\n\n  function _burn(uint256 tokenId) internal override(ERC721, ERC721URIStorage) {\n    super._burn(tokenId);\n  }\n\n  function supportsInterface(bytes4 interfaceId)\n    public\n    view\n    override(ERC721, ERC721Enumerable)\n    returns (bool)\n  {\n    return super.supportsInterface(interfaceId);\n  }\n\n  function tokenURI(uint256 tokenId)\n    public\n    view\n    override(ERC721, ERC721URIStorage)\n    returns (string memory)\n  {\n    return super.tokenURI(tokenId);\n  }\n\n  function mintNFT(address recipient, string memory tokenURI)\n    public\n    returns (uint256)\n  {\n    _tokenIds.increment();\n\n    uint256 newItemId = _tokenIds.current();\n    _mint(recipient, newItemId);\n    _setTokenURI(newItemId, tokenURI);\n    return newItemId;\n  }\n\n  function listUserNFTs(address owner)\n    external\n    view\n    returns (uint256[] memory)\n  {\n    uint256 balance = balanceOf(owner);\n    uint256[] memory tokens = new uint256[](balance);\n    for (uint256 i = 0; i < balance; i++) {\n      tokens[i] = (tokenOfOwnerByIndex(owner, i));\n    }\n\n    return tokens;\n  }\n\n  struct NftTokenData {\n    uint256 nftTokenId;\n    string nftTokenURI;\n    //uint price ;\n  }\n\n  function getNftTokens(address _nftTokenOwner)\n    public\n    view\n    returns (NftTokenData[] memory)\n  {\n    uint256 balanceLength = balanceOf(_nftTokenOwner);\n    NftTokenData[] memory nftTokenData = new NftTokenData[](balanceLength);\n    for (uint256 i = 0; i < balanceLength; i++) {\n      uint256 nftTokenId = tokenOfOwnerByIndex(_nftTokenOwner, i);\n      string memory nftTokenURI = tokenURI(nftTokenId);\n      nftTokenData[i] = NftTokenData(nftTokenId, nftTokenURI);\n      // uint tokenPrice = getNftTokenPrice(nftTokenId);\n      // nftTokenData[i] = NftTokenData(nftTokenId , nftTokenURI, tokenPrice );\n    }\n\n    return nftTokenData;\n  }\n\n  mapping(uint256 => uint256) public nftTokenPrices;\n  uint256[] public onSaleNftTokenArray;\n\n  function addToMarket(uint256 _tokenId, uint256 _price) public {\n    address nftTokenOwner = ownerOf(_tokenId);\n    require(nftTokenOwner == msg.sender, 'Caller is not nft token owner.');\n    setApprovalForAll(address(this), true);\n\n    nftTokenPrices[_tokenId] = _price;\n    onSaleNftTokenArray.push(_tokenId); // nft list\n  }\n\n  function getMarketList() public view returns (NftTokenData[] memory) {\n    uint256[] memory onSaleNftToken = getSaleNftToken();\n    NftTokenData[] memory onSaleNftTokens = new NftTokenData[](\n      onSaleNftToken.length\n    );\n\n    for (uint256 i = 0; i < onSaleNftToken.length; i++) {\n      uint256 tokenId = onSaleNftToken[i];\n      //uint256 tokenPrice = getNftTokenPrice(tokenId);\n      onSaleNftTokens[i] = NftTokenData(tokenId, tokenURI(tokenId));\n    }\n\n    return onSaleNftTokens;\n  }\n\n  function getSaleNftToken() public view returns (uint256[] memory) {\n    return onSaleNftTokenArray;\n  }\n\n  function getNftTokenPrice(uint256 _tokenId) public view returns (uint256) {\n    return nftTokenPrices[_tokenId];\n  }\n\n  function buyNft(uint256 _tokenId) public payable {\n    uint256 price = nftTokenPrices[_tokenId];\n    address nftTokenOwner = ownerOf(_tokenId);\n    require(price > 0, 'nft token not sale.');\n    require(nftTokenOwner != msg.sender, 'caller is nft token owner.');\n    require(\n      isApprovedForAll(nftTokenOwner, address(this)),\n      'nft token owner did not approve token.'\n    );\n    payable(nftTokenOwner).transfer(msg.value);\n    IERC721(address(this)).safeTransferFrom(\n      nftTokenOwner,\n      msg.sender,\n      _tokenId\n    );\n    removeToken(_tokenId);\n  }\n\n  function burn(uint256 _tokenId) public {\n    address addr_owner = ownerOf(_tokenId);\n    require(\n      addr_owner == msg.sender,\n      'msg.sender is not the owner of the token'\n    );\n    _burn(_tokenId);\n    removeToken(_tokenId);\n  }\n\n  function removeToken(uint256 _tokenId) private {\n    nftTokenPrices[_tokenId] = 0;\n    for (uint256 i = 0; i < onSaleNftTokenArray.length; i++) {\n      if (nftTokenPrices[onSaleNftTokenArray[i]] == 0) {\n        onSaleNftTokenArray[i] = onSaleNftTokenArray[\n          onSaleNftTokenArray.length - 1\n        ];\n        onSaleNftTokenArray.pop();\n      }\n    }\n  }\n}\n",
  "sourcePath": "/Users/yjs/Documents/GitHub/nft-marketplace-nextjs/backend/contracts/OpenPlanet.sol",
  "compiler": {
    "name": "solc",
    "version": "0.8.16+commit.07a7930e.Emscripten.clang"
  },
  "schemaVersion": "3.4.9",
  "updatedAt": "2022-08-31T04:20:07.332Z",
  "networkType": "ethereum",
  "devdoc": {
    "kind": "dev",
    "methods": {
      "approve(address,uint256)": {
        "details": "See {IERC721-approve}."
      },
      "balanceOf(address)": {
        "details": "See {IERC721-balanceOf}."
      },
      "getApproved(uint256)": {
        "details": "See {IERC721-getApproved}."
      },
      "isApprovedForAll(address,address)": {
        "details": "See {IERC721-isApprovedForAll}."
      },
      "name()": {
        "details": "See {IERC721Metadata-name}."
      },
      "owner()": {
        "details": "Returns the address of the current owner."
      },
      "ownerOf(uint256)": {
        "details": "See {IERC721-ownerOf}."
      },
      "renounceOwnership()": {
        "details": "Leaves the contract without owner. It will not be possible to call `onlyOwner` functions anymore. Can only be called by the current owner. NOTE: Renouncing ownership will leave the contract without an owner, thereby removing any functionality that is only available to the owner."
      },
      "safeTransferFrom(address,address,uint256)": {
        "details": "See {IERC721-safeTransferFrom}."
      },
      "safeTransferFrom(address,address,uint256,bytes)": {
        "details": "See {IERC721-safeTransferFrom}."
      },
      "setApprovalForAll(address,bool)": {
        "details": "See {IERC721-setApprovalForAll}."
      },
      "symbol()": {
        "details": "See {IERC721Metadata-symbol}."
      },
      "tokenByIndex(uint256)": {
        "details": "See {IERC721Enumerable-tokenByIndex}."
      },
      "tokenOfOwnerByIndex(address,uint256)": {
        "details": "See {IERC721Enumerable-tokenOfOwnerByIndex}."
      },
      "totalSupply()": {
        "details": "See {IERC721Enumerable-totalSupply}."
      },
      "transferFrom(address,address,uint256)": {
        "details": "See {IERC721-transferFrom}."
      },
      "transferOwnership(address)": {
        "details": "Transfers ownership of the contract to a new account (`newOwner`). Can only be called by the current owner."
      }
    },
    "version": 1
  },
  "userdoc": {
    "kind": "user",
    "methods": {},
    "version": 1
  }
}