{
  "contractName": "OpenPlanetContractMetadata",
  "abi": [
    {
      "inputs": [
        {
          "internalType": "string",
          "name": "_contractURI",
          "type": "string"
        },
        {
          "internalType": "address",
          "name": "_to_mint",
          "type": "address"
        },
        {
          "internalType": "string",
          "name": "_metaURI",
          "type": "string"
        }
      ],
      "stateMutability": "nonpayable",
      "type": "constructor"
    },
    {
      "anonymous": false,
      "inputs": [
        {
          "indexed": true,
          "internalType": "address",
          "name": "owner",
          "type": "address"
        },
        {
          "indexed": true,
          "internalType": "address",
          "name": "approved",
          "type": "address"
        },
        {
          "indexed": true,
          "internalType": "uint256",
          "name": "tokenId",
          "type": "uint256"
        }
      ],
      "name": "Approval",
      "type": "event"
    },
    {
      "anonymous": false,
      "inputs": [
        {
          "indexed": true,
          "internalType": "address",
          "name": "owner",
          "type": "address"
        },
        {
          "indexed": true,
          "internalType": "address",
          "name": "operator",
          "type": "address"
        },
        {
          "indexed": false,
          "internalType": "bool",
          "name": "approved",
          "type": "bool"
        }
      ],
      "name": "ApprovalForAll",
      "type": "event"
    },
    {
      "anonymous": false,
      "inputs": [
        {
          "indexed": true,
          "internalType": "address",
          "name": "from",
          "type": "address"
        },
        {
          "indexed": true,
          "internalType": "address",
          "name": "to",
          "type": "address"
        },
        {
          "indexed": true,
          "internalType": "uint256",
          "name": "tokenId",
          "type": "uint256"
        }
      ],
      "name": "Transfer",
      "type": "event"
    },
    {
      "inputs": [
        {
          "internalType": "address",
          "name": "to",
          "type": "address"
        },
        {
          "internalType": "uint256",
          "name": "tokenId",
          "type": "uint256"
        }
      ],
      "name": "approve",
      "outputs": [],
      "stateMutability": "nonpayable",
      "type": "function"
    },
    {
      "inputs": [
        {
          "internalType": "address",
          "name": "owner",
          "type": "address"
        }
      ],
      "name": "balanceOf",
      "outputs": [
        {
          "internalType": "uint256",
          "name": "",
          "type": "uint256"
        }
      ],
      "stateMutability": "view",
      "type": "function"
    },
    {
      "inputs": [],
      "name": "contractURI_",
      "outputs": [
        {
          "internalType": "string",
          "name": "",
          "type": "string"
        }
      ],
      "stateMutability": "view",
      "type": "function"
    },
    {
      "inputs": [
        {
          "internalType": "uint256",
          "name": "tokenId",
          "type": "uint256"
        }
      ],
      "name": "getApproved",
      "outputs": [
        {
          "internalType": "address",
          "name": "",
          "type": "address"
        }
      ],
      "stateMutability": "view",
      "type": "function"
    },
    {
      "inputs": [
        {
          "internalType": "address",
          "name": "owner",
          "type": "address"
        },
        {
          "internalType": "address",
          "name": "operator",
          "type": "address"
        }
      ],
      "name": "isApprovedForAll",
      "outputs": [
        {
          "internalType": "bool",
          "name": "",
          "type": "bool"
        }
      ],
      "stateMutability": "view",
      "type": "function"
    },
    {
      "inputs": [],
      "name": "name",
      "outputs": [
        {
          "internalType": "string",
          "name": "",
          "type": "string"
        }
      ],
      "stateMutability": "view",
      "type": "function"
    },
    {
      "inputs": [
        {
          "internalType": "uint256",
          "name": "tokenId",
          "type": "uint256"
        }
      ],
      "name": "ownerOf",
      "outputs": [
        {
          "internalType": "address",
          "name": "",
          "type": "address"
        }
      ],
      "stateMutability": "view",
      "type": "function"
    },
    {
      "inputs": [
        {
          "internalType": "address",
          "name": "from",
          "type": "address"
        },
        {
          "internalType": "address",
          "name": "to",
          "type": "address"
        },
        {
          "internalType": "uint256",
          "name": "tokenId",
          "type": "uint256"
        }
      ],
      "name": "safeTransferFrom",
      "outputs": [],
      "stateMutability": "nonpayable",
      "type": "function"
    },
    {
      "inputs": [
        {
          "internalType": "address",
          "name": "from",
          "type": "address"
        },
        {
          "internalType": "address",
          "name": "to",
          "type": "address"
        },
        {
          "internalType": "uint256",
          "name": "tokenId",
          "type": "uint256"
        },
        {
          "internalType": "bytes",
          "name": "data",
          "type": "bytes"
        }
      ],
      "name": "safeTransferFrom",
      "outputs": [],
      "stateMutability": "nonpayable",
      "type": "function"
    },
    {
      "inputs": [
        {
          "internalType": "address",
          "name": "operator",
          "type": "address"
        },
        {
          "internalType": "bool",
          "name": "approved",
          "type": "bool"
        }
      ],
      "name": "setApprovalForAll",
      "outputs": [],
      "stateMutability": "nonpayable",
      "type": "function"
    },
    {
      "inputs": [
        {
          "internalType": "bytes4",
          "name": "interfaceId",
          "type": "bytes4"
        }
      ],
      "name": "supportsInterface",
      "outputs": [
        {
          "internalType": "bool",
          "name": "",
          "type": "bool"
        }
      ],
      "stateMutability": "view",
      "type": "function"
    },
    {
      "inputs": [],
      "name": "symbol",
      "outputs": [
        {
          "internalType": "string",
          "name": "",
          "type": "string"
        }
      ],
      "stateMutability": "view",
      "type": "function"
    },
    {
      "inputs": [
        {
          "internalType": "uint256",
          "name": "",
          "type": "uint256"
        }
      ],
      "name": "tokenUris",
      "outputs": [
        {
          "internalType": "string",
          "name": "",
          "type": "string"
        }
      ],
      "stateMutability": "view",
      "type": "function"
    },
    {
      "inputs": [
        {
          "internalType": "address",
          "name": "from",
          "type": "address"
        },
        {
          "internalType": "address",
          "name": "to",
          "type": "address"
        },
        {
          "internalType": "uint256",
          "name": "tokenId",
          "type": "uint256"
        }
      ],
      "name": "transferFrom",
      "outputs": [],
      "stateMutability": "nonpayable",
      "type": "function"
    },
    {
      "inputs": [
        {
          "internalType": "uint256",
          "name": "_tokenId",
          "type": "uint256"
        }
      ],
      "name": "tokenURI",
      "outputs": [
        {
          "internalType": "string",
          "name": "",
          "type": "string"
        }
      ],
      "stateMutability": "view",
      "type": "function"
    },
    {
      "inputs": [],
      "name": "contractURI",
      "outputs": [
        {
          "internalType": "string",
          "name": "",
          "type": "string"
        }
      ],
      "stateMutability": "view",
      "type": "function"
    }
  ],
  "bytecode": "0x60806040523480156200001157600080fd5b506040516200302c3803806200302c8339818101604052810190620000379190620007e9565b6040518060400160405280600c81526020017f4f70656e536561205465737400000000000000000000000000000000000000008152506040518060400160405280600481526020017f54455354000000000000000000000000000000000000000000000000000000008152508160009081620000b4919062000ace565b508060019081620000c6919062000ace565b5050508260069081620000da919062000ace565b50620000ee8260006200011a60201b60201c565b8060076000808152602001908152602001600020908162000110919062000ace565b5050505062000f0e565b6200013c8282604051806020016040528060008152506200014060201b60201c565b5050565b620001528383620001ae60201b60201c565b620001676000848484620003a760201b60201c565b620001a9576040517f08c379a0000000000000000000000000000000000000000000000000000000008152600401620001a09062000c3c565b60405180910390fd5b505050565b600073ffffffffffffffffffffffffffffffffffffffff168273ffffffffffffffffffffffffffffffffffffffff160362000220576040517f08c379a0000000000000000000000000000000000000000000000000000000008152600401620002179062000cae565b60405180910390fd5b62000231816200055060201b60201c565b1562000274576040517f08c379a00000000000000000000000000000000000000000000000000000000081526004016200026b9062000d20565b60405180910390fd5b6200028860008383620005bc60201b60201c565b6001600360008473ffffffffffffffffffffffffffffffffffffffff1673ffffffffffffffffffffffffffffffffffffffff1681526020019081526020016000206000828254620002da919062000d71565b92505081905550816002600083815260200190815260200160002060006101000a81548173ffffffffffffffffffffffffffffffffffffffff021916908373ffffffffffffffffffffffffffffffffffffffff160217905550808273ffffffffffffffffffffffffffffffffffffffff16600073ffffffffffffffffffffffffffffffffffffffff167fddf252ad1be2c89b69c2b068fc378daa952ba7f163c4a11628f55a4df523b3ef60405160405180910390a4620003a360008383620005c160201b60201c565b5050565b6000620003d58473ffffffffffffffffffffffffffffffffffffffff16620005c660201b62000c151760201c565b1562000543578373ffffffffffffffffffffffffffffffffffffffff1663150b7a0262000407620005e960201b60201c565b8786866040518563ffffffff1660e01b81526004016200042b949392919062000e2b565b6020604051808303816000875af19250505080156200046a57506040513d601f19601f8201168201806040525081019062000467919062000edc565b60015b620004f2573d80600081146200049d576040519150601f19603f3d011682016040523d82523d6000602084013e620004a2565b606091505b506000815103620004ea576040517f08c379a0000000000000000000000000000000000000000000000000000000008152600401620004e19062000c3c565b60405180910390fd5b805181602001fd5b63150b7a0260e01b7bffffffffffffffffffffffffffffffffffffffffffffffffffffffff1916817bffffffffffffffffffffffffffffffffffffffffffffffffffffffff19161491505062000548565b600190505b949350505050565b60008073ffffffffffffffffffffffffffffffffffffffff166002600084815260200190815260200160002060009054906101000a900473ffffffffffffffffffffffffffffffffffffffff1673ffffffffffffffffffffffffffffffffffffffff1614159050919050565b505050565b505050565b6000808273ffffffffffffffffffffffffffffffffffffffff163b119050919050565b600033905090565b6000604051905090565b600080fd5b600080fd5b600080fd5b600080fd5b6000601f19601f8301169050919050565b7f4e487b7100000000000000000000000000000000000000000000000000000000600052604160045260246000fd5b6200065a826200060f565b810181811067ffffffffffffffff821117156200067c576200067b62000620565b5b80604052505050565b600062000691620005f1565b90506200069f82826200064f565b919050565b600067ffffffffffffffff821115620006c257620006c162000620565b5b620006cd826200060f565b9050602081019050919050565b60005b83811015620006fa578082015181840152602081019050620006dd565b60008484015250505050565b60006200071d6200071784620006a4565b62000685565b9050828152602081018484840111156200073c576200073b6200060a565b5b62000749848285620006da565b509392505050565b600082601f83011262000769576200076862000605565b5b81516200077b84826020860162000706565b91505092915050565b600073ffffffffffffffffffffffffffffffffffffffff82169050919050565b6000620007b18262000784565b9050919050565b620007c381620007a4565b8114620007cf57600080fd5b50565b600081519050620007e381620007b8565b92915050565b600080600060608486031215620008055762000804620005fb565b5b600084015167ffffffffffffffff81111562000826576200082562000600565b5b620008348682870162000751565b93505060206200084786828701620007d2565b925050604084015167ffffffffffffffff8111156200086b576200086a62000600565b5b620008798682870162000751565b9150509250925092565b600081519050919050565b7f4e487b7100000000000000000000000000000000000000000000000000000000600052602260045260246000fd5b60006002820490506001821680620008d657607f821691505b602082108103620008ec57620008eb6200088e565b5b50919050565b60008190508160005260206000209050919050565b60006020601f8301049050919050565b600082821b905092915050565b600060088302620009567fffffffffffffffffffffffffffffffffffffffffffffffffffffffffffffffff8262000917565b62000962868362000917565b95508019841693508086168417925050509392505050565b6000819050919050565b6000819050919050565b6000620009af620009a9620009a3846200097a565b62000984565b6200097a565b9050919050565b6000819050919050565b620009cb836200098e565b620009e3620009da82620009b6565b84845462000924565b825550505050565b600090565b620009fa620009eb565b62000a07818484620009c0565b505050565b5b8181101562000a2f5762000a23600082620009f0565b60018101905062000a0d565b5050565b601f82111562000a7e5762000a4881620008f2565b62000a538462000907565b8101602085101562000a63578190505b62000a7b62000a728562000907565b83018262000a0c565b50505b505050565b600082821c905092915050565b600062000aa36000198460080262000a83565b1980831691505092915050565b600062000abe838362000a90565b9150826002028217905092915050565b62000ad98262000883565b67ffffffffffffffff81111562000af55762000af462000620565b5b62000b018254620008bd565b62000b0e82828562000a33565b600060209050601f83116001811462000b46576000841562000b31578287015190505b62000b3d858262000ab0565b86555062000bad565b601f19841662000b5686620008f2565b60005b8281101562000b805784890151825560018201915060208501945060208101905062000b59565b8683101562000ba0578489015162000b9c601f89168262000a90565b8355505b6001600288020188555050505b505050505050565b600082825260208201905092915050565b7f4552433732313a207472616e7366657220746f206e6f6e20455243373231526560008201527f63656976657220696d706c656d656e7465720000000000000000000000000000602082015250565b600062000c2460328362000bb5565b915062000c318262000bc6565b604082019050919050565b6000602082019050818103600083015262000c578162000c15565b9050919050565b7f4552433732313a206d696e7420746f20746865207a65726f2061646472657373600082015250565b600062000c9660208362000bb5565b915062000ca38262000c5e565b602082019050919050565b6000602082019050818103600083015262000cc98162000c87565b9050919050565b7f4552433732313a20746f6b656e20616c7265616479206d696e74656400000000600082015250565b600062000d08601c8362000bb5565b915062000d158262000cd0565b602082019050919050565b6000602082019050818103600083015262000d3b8162000cf9565b9050919050565b7f4e487b7100000000000000000000000000000000000000000000000000000000600052601160045260246000fd5b600062000d7e826200097a565b915062000d8b836200097a565b925082820190508082111562000da65762000da562000d42565b5b92915050565b62000db781620007a4565b82525050565b62000dc8816200097a565b82525050565b600081519050919050565b600082825260208201905092915050565b600062000df78262000dce565b62000e03818562000dd9565b935062000e15818560208601620006da565b62000e20816200060f565b840191505092915050565b600060808201905062000e42600083018762000dac565b62000e51602083018662000dac565b62000e60604083018562000dbd565b818103606083015262000e74818462000dea565b905095945050505050565b60007fffffffff0000000000000000000000000000000000000000000000000000000082169050919050565b62000eb68162000e7f565b811462000ec257600080fd5b50565b60008151905062000ed68162000eab565b92915050565b60006020828403121562000ef55762000ef4620005fb565b5b600062000f058482850162000ec5565b91505092915050565b61210e8062000f1e6000396000f3fe608060405234801561001057600080fd5b50600436106101005760003560e01c806370a0823111610097578063b88d4fde11610066578063b88d4fde146102bf578063c87b56dd146102db578063e8a3d4851461030b578063e985e9c51461032957610100565b806370a082311461022557806395d89b4114610255578063a22cb46514610273578063ae882b651461028f57610100565b806323b872dd116100d357806323b872dd1461019f57806335a6907a146101bb57806342842e0e146101d95780636352211e146101f557610100565b806301ffc9a71461010557806306fdde0314610135578063081812fc14610153578063095ea7b314610183575b600080fd5b61011f600480360381019061011a91906114da565b610359565b60405161012c9190611522565b60405180910390f35b61013d61043b565b60405161014a91906115cd565b60405180910390f35b61016d60048036038101906101689190611625565b6104cd565b60405161017a9190611693565b60405180910390f35b61019d600480360381019061019891906116da565b610513565b005b6101b960048036038101906101b4919061171a565b61062a565b005b6101c361068a565b6040516101d091906115cd565b60405180910390f35b6101f360048036038101906101ee919061171a565b610718565b005b61020f600480360381019061020a9190611625565b610738565b60405161021c9190611693565b60405180910390f35b61023f600480360381019061023a919061176d565b6107e9565b60405161024c91906117a9565b60405180910390f35b61025d6108a0565b60405161026a91906115cd565b60405180910390f35b61028d600480360381019061028891906117f0565b610932565b005b6102a960048036038101906102a49190611625565b610948565b6040516102b691906115cd565b60405180910390f35b6102d960048036038101906102d49190611965565b6109e8565b005b6102f560048036038101906102f09190611625565b610a4a565b60405161030291906115cd565b60405180910390f35b610313610aef565b60405161032091906115cd565b60405180910390f35b610343600480360381019061033e91906119e8565b610b81565b6040516103509190611522565b60405180910390f35b60007f80ac58cd000000000000000000000000000000000000000000000000000000007bffffffffffffffffffffffffffffffffffffffffffffffffffffffff1916827bffffffffffffffffffffffffffffffffffffffffffffffffffffffff1916148061042457507f5b5e139f000000000000000000000000000000000000000000000000000000007bffffffffffffffffffffffffffffffffffffffffffffffffffffffff1916827bffffffffffffffffffffffffffffffffffffffffffffffffffffffff1916145b80610434575061043382610c38565b5b9050919050565b60606000805461044a90611a57565b80601f016020809104026020016040519081016040528092919081815260200182805461047690611a57565b80156104c35780601f10610498576101008083540402835291602001916104c3565b820191906000526020600020905b8154815290600101906020018083116104a657829003601f168201915b5050505050905090565b60006104d882610ca2565b6004600083815260200190815260200160002060009054906101000a900473ffffffffffffffffffffffffffffffffffffffff169050919050565b600061051e82610738565b90508073ffffffffffffffffffffffffffffffffffffffff168373ffffffffffffffffffffffffffffffffffffffff160361058e576040517f08c379a000000000000000000000000000000000000000000000000000000000815260040161058590611afa565b60405180910390fd5b8073ffffffffffffffffffffffffffffffffffffffff166105ad610ced565b73ffffffffffffffffffffffffffffffffffffffff1614806105dc57506105db816105d6610ced565b610b81565b5b61061b576040517f08c379a000000000000000000000000000000000000000000000000000000000815260040161061290611b8c565b60405180910390fd5b6106258383610cf5565b505050565b61063b610635610ced565b82610dae565b61067a576040517f08c379a000000000000000000000000000000000000000000000000000000000815260040161067190611c1e565b60405180910390fd5b610685838383610e43565b505050565b6006805461069790611a57565b80601f01602080910402602001604051908101604052809291908181526020018280546106c390611a57565b80156107105780601f106106e557610100808354040283529160200191610710565b820191906000526020600020905b8154815290600101906020018083116106f357829003601f168201915b505050505081565b610733838383604051806020016040528060008152506109e8565b505050565b6000806002600084815260200190815260200160002060009054906101000a900473ffffffffffffffffffffffffffffffffffffffff169050600073ffffffffffffffffffffffffffffffffffffffff168173ffffffffffffffffffffffffffffffffffffffff16036107e0576040517f08c379a00000000000000000000000000000000000000000000000000000000081526004016107d790611c8a565b60405180910390fd5b80915050919050565b60008073ffffffffffffffffffffffffffffffffffffffff168273ffffffffffffffffffffffffffffffffffffffff1603610859576040517f08c379a000000000000000000000000000000000000000000000000000000000815260040161085090611d1c565b60405180910390fd5b600360008373ffffffffffffffffffffffffffffffffffffffff1673ffffffffffffffffffffffffffffffffffffffff168152602001908152602001600020549050919050565b6060600180546108af90611a57565b80601f01602080910402602001604051908101604052809291908181526020018280546108db90611a57565b80156109285780601f106108fd57610100808354040283529160200191610928565b820191906000526020600020905b81548152906001019060200180831161090b57829003601f168201915b5050505050905090565b61094461093d610ced565b83836110a9565b5050565b6007602052806000526040600020600091509050805461096790611a57565b80601f016020809104026020016040519081016040528092919081815260200182805461099390611a57565b80156109e05780601f106109b5576101008083540402835291602001916109e0565b820191906000526020600020905b8154815290600101906020018083116109c357829003601f168201915b505050505081565b6109f96109f3610ced565b83610dae565b610a38576040517f08c379a0000000000000000000000000000000000000000000000000000000008152600401610a2f90611c1e565b60405180910390fd5b610a4484848484611215565b50505050565b6060600760008381526020019081526020016000208054610a6a90611a57565b80601f0160208091040260200160405190810160405280929190818152602001828054610a9690611a57565b8015610ae35780601f10610ab857610100808354040283529160200191610ae3565b820191906000526020600020905b815481529060010190602001808311610ac657829003601f168201915b50505050509050919050565b606060068054610afe90611a57565b80601f0160208091040260200160405190810160405280929190818152602001828054610b2a90611a57565b8015610b775780601f10610b4c57610100808354040283529160200191610b77565b820191906000526020600020905b815481529060010190602001808311610b5a57829003601f168201915b5050505050905090565b6000600560008473ffffffffffffffffffffffffffffffffffffffff1673ffffffffffffffffffffffffffffffffffffffff16815260200190815260200160002060008373ffffffffffffffffffffffffffffffffffffffff1673ffffffffffffffffffffffffffffffffffffffff16815260200190815260200160002060009054906101000a900460ff16905092915050565b6000808273ffffffffffffffffffffffffffffffffffffffff163b119050919050565b60007f01ffc9a7000000000000000000000000000000000000000000000000000000007bffffffffffffffffffffffffffffffffffffffffffffffffffffffff1916827bffffffffffffffffffffffffffffffffffffffffffffffffffffffff1916149050919050565b610cab81611271565b610cea576040517f08c379a0000000000000000000000000000000000000000000000000000000008152600401610ce190611c8a565b60405180910390fd5b50565b600033905090565b816004600083815260200190815260200160002060006101000a81548173ffffffffffffffffffffffffffffffffffffffff021916908373ffffffffffffffffffffffffffffffffffffffff160217905550808273ffffffffffffffffffffffffffffffffffffffff16610d6883610738565b73ffffffffffffffffffffffffffffffffffffffff167f8c5be1e5ebec7d5bd14f71427d1e84f3dd0314c0f7b2291e5b200ac8c7c3b92560405160405180910390a45050565b600080610dba83610738565b90508073ffffffffffffffffffffffffffffffffffffffff168473ffffffffffffffffffffffffffffffffffffffff161480610dfc5750610dfb8185610b81565b5b80610e3a57508373ffffffffffffffffffffffffffffffffffffffff16610e22846104cd565b73ffffffffffffffffffffffffffffffffffffffff16145b91505092915050565b8273ffffffffffffffffffffffffffffffffffffffff16610e6382610738565b73ffffffffffffffffffffffffffffffffffffffff1614610eb9576040517f08c379a0000000000000000000000000000000000000000000000000000000008152600401610eb090611dae565b60405180910390fd5b600073ffffffffffffffffffffffffffffffffffffffff168273ffffffffffffffffffffffffffffffffffffffff1603610f28576040517f08c379a0000000000000000000000000000000000000000000000000000000008152600401610f1f90611e40565b60405180910390fd5b610f338383836112dd565b610f3e600082610cf5565b6001600360008573ffffffffffffffffffffffffffffffffffffffff1673ffffffffffffffffffffffffffffffffffffffff1681526020019081526020016000206000828254610f8e9190611e8f565b925050819055506001600360008473ffffffffffffffffffffffffffffffffffffffff1673ffffffffffffffffffffffffffffffffffffffff1681526020019081526020016000206000828254610fe59190611ec3565b92505081905550816002600083815260200190815260200160002060006101000a81548173ffffffffffffffffffffffffffffffffffffffff021916908373ffffffffffffffffffffffffffffffffffffffff160217905550808273ffffffffffffffffffffffffffffffffffffffff168473ffffffffffffffffffffffffffffffffffffffff167fddf252ad1be2c89b69c2b068fc378daa952ba7f163c4a11628f55a4df523b3ef60405160405180910390a46110a48383836112e2565b505050565b8173ffffffffffffffffffffffffffffffffffffffff168373ffffffffffffffffffffffffffffffffffffffff1603611117576040517f08c379a000000000000000000000000000000000000000000000000000000000815260040161110e90611f43565b60405180910390fd5b80600560008573ffffffffffffffffffffffffffffffffffffffff1673ffffffffffffffffffffffffffffffffffffffff16815260200190815260200160002060008473ffffffffffffffffffffffffffffffffffffffff1673ffffffffffffffffffffffffffffffffffffffff16815260200190815260200160002060006101000a81548160ff0219169083151502179055508173ffffffffffffffffffffffffffffffffffffffff168373ffffffffffffffffffffffffffffffffffffffff167f17307eab39ab6107e8899845ad3d59bd9653f200f220920489ca2b5937696c31836040516112089190611522565b60405180910390a3505050565b611220848484610e43565b61122c848484846112e7565b61126b576040517f08c379a000000000000000000000000000000000000000000000000000000000815260040161126290611fd5565b60405180910390fd5b50505050565b60008073ffffffffffffffffffffffffffffffffffffffff166002600084815260200190815260200160002060009054906101000a900473ffffffffffffffffffffffffffffffffffffffff1673ffffffffffffffffffffffffffffffffffffffff1614159050919050565b505050565b505050565b60006113088473ffffffffffffffffffffffffffffffffffffffff16610c15565b15611461578373ffffffffffffffffffffffffffffffffffffffff1663150b7a02611331610ced565b8786866040518563ffffffff1660e01b8152600401611353949392919061204a565b6020604051808303816000875af192505050801561138f57506040513d601f19601f8201168201806040525081019061138c91906120ab565b60015b611411573d80600081146113bf576040519150601f19603f3d011682016040523d82523d6000602084013e6113c4565b606091505b506000815103611409576040517f08c379a000000000000000000000000000000000000000000000000000000000815260040161140090611fd5565b60405180910390fd5b805181602001fd5b63150b7a0260e01b7bffffffffffffffffffffffffffffffffffffffffffffffffffffffff1916817bffffffffffffffffffffffffffffffffffffffffffffffffffffffff191614915050611466565b600190505b949350505050565b6000604051905090565b600080fd5b600080fd5b60007fffffffff0000000000000000000000000000000000000000000000000000000082169050919050565b6114b781611482565b81146114c257600080fd5b50565b6000813590506114d4816114ae565b92915050565b6000602082840312156114f0576114ef611478565b5b60006114fe848285016114c5565b91505092915050565b60008115159050919050565b61151c81611507565b82525050565b60006020820190506115376000830184611513565b92915050565b600081519050919050565b600082825260208201905092915050565b60005b8381101561157757808201518184015260208101905061155c565b60008484015250505050565b6000601f19601f8301169050919050565b600061159f8261153d565b6115a98185611548565b93506115b9818560208601611559565b6115c281611583565b840191505092915050565b600060208201905081810360008301526115e78184611594565b905092915050565b6000819050919050565b611602816115ef565b811461160d57600080fd5b50565b60008135905061161f816115f9565b92915050565b60006020828403121561163b5761163a611478565b5b600061164984828501611610565b91505092915050565b600073ffffffffffffffffffffffffffffffffffffffff82169050919050565b600061167d82611652565b9050919050565b61168d81611672565b82525050565b60006020820190506116a86000830184611684565b92915050565b6116b781611672565b81146116c257600080fd5b50565b6000813590506116d4816116ae565b92915050565b600080604083850312156116f1576116f0611478565b5b60006116ff858286016116c5565b925050602061171085828601611610565b9150509250929050565b60008060006060848603121561173357611732611478565b5b6000611741868287016116c5565b9350506020611752868287016116c5565b925050604061176386828701611610565b9150509250925092565b60006020828403121561178357611782611478565b5b6000611791848285016116c5565b91505092915050565b6117a3816115ef565b82525050565b60006020820190506117be600083018461179a565b92915050565b6117cd81611507565b81146117d857600080fd5b50565b6000813590506117ea816117c4565b92915050565b6000806040838503121561180757611806611478565b5b6000611815858286016116c5565b9250506020611826858286016117db565b9150509250929050565b600080fd5b600080fd5b7f4e487b7100000000000000000000000000000000000000000000000000000000600052604160045260246000fd5b61187282611583565b810181811067ffffffffffffffff821117156118915761189061183a565b5b80604052505050565b60006118a461146e565b90506118b08282611869565b919050565b600067ffffffffffffffff8211156118d0576118cf61183a565b5b6118d982611583565b9050602081019050919050565b82818337600083830152505050565b6000611908611903846118b5565b61189a565b90508281526020810184848401111561192457611923611835565b5b61192f8482856118e6565b509392505050565b600082601f83011261194c5761194b611830565b5b813561195c8482602086016118f5565b91505092915050565b6000806000806080858703121561197f5761197e611478565b5b600061198d878288016116c5565b945050602061199e878288016116c5565b93505060406119af87828801611610565b925050606085013567ffffffffffffffff8111156119d0576119cf61147d565b5b6119dc87828801611937565b91505092959194509250565b600080604083850312156119ff576119fe611478565b5b6000611a0d858286016116c5565b9250506020611a1e858286016116c5565b9150509250929050565b7f4e487b7100000000000000000000000000000000000000000000000000000000600052602260045260246000fd5b60006002820490506001821680611a6f57607f821691505b602082108103611a8257611a81611a28565b5b50919050565b7f4552433732313a20617070726f76616c20746f2063757272656e74206f776e6560008201527f7200000000000000000000000000000000000000000000000000000000000000602082015250565b6000611ae4602183611548565b9150611aef82611a88565b604082019050919050565b60006020820190508181036000830152611b1381611ad7565b9050919050565b7f4552433732313a20617070726f76652063616c6c6572206973206e6f7420746f60008201527f6b656e206f776e6572206e6f7220617070726f76656420666f7220616c6c0000602082015250565b6000611b76603e83611548565b9150611b8182611b1a565b604082019050919050565b60006020820190508181036000830152611ba581611b69565b9050919050565b7f4552433732313a2063616c6c6572206973206e6f7420746f6b656e206f776e6560008201527f72206e6f7220617070726f766564000000000000000000000000000000000000602082015250565b6000611c08602e83611548565b9150611c1382611bac565b604082019050919050565b60006020820190508181036000830152611c3781611bfb565b9050919050565b7f4552433732313a20696e76616c696420746f6b656e2049440000000000000000600082015250565b6000611c74601883611548565b9150611c7f82611c3e565b602082019050919050565b60006020820190508181036000830152611ca381611c67565b9050919050565b7f4552433732313a2061646472657373207a65726f206973206e6f74206120766160008201527f6c6964206f776e65720000000000000000000000000000000000000000000000602082015250565b6000611d06602983611548565b9150611d1182611caa565b604082019050919050565b60006020820190508181036000830152611d3581611cf9565b9050919050565b7f4552433732313a207472616e736665722066726f6d20696e636f72726563742060008201527f6f776e6572000000000000000000000000000000000000000000000000000000602082015250565b6000611d98602583611548565b9150611da382611d3c565b604082019050919050565b60006020820190508181036000830152611dc781611d8b565b9050919050565b7f4552433732313a207472616e7366657220746f20746865207a65726f2061646460008201527f7265737300000000000000000000000000000000000000000000000000000000602082015250565b6000611e2a602483611548565b9150611e3582611dce565b604082019050919050565b60006020820190508181036000830152611e5981611e1d565b9050919050565b7f4e487b7100000000000000000000000000000000000000000000000000000000600052601160045260246000fd5b6000611e9a826115ef565b9150611ea5836115ef565b9250828203905081811115611ebd57611ebc611e60565b5b92915050565b6000611ece826115ef565b9150611ed9836115ef565b9250828201905080821115611ef157611ef0611e60565b5b92915050565b7f4552433732313a20617070726f766520746f2063616c6c657200000000000000600082015250565b6000611f2d601983611548565b9150611f3882611ef7565b602082019050919050565b60006020820190508181036000830152611f5c81611f20565b9050919050565b7f4552433732313a207472616e7366657220746f206e6f6e20455243373231526560008201527f63656976657220696d706c656d656e7465720000000000000000000000000000602082015250565b6000611fbf603283611548565b9150611fca82611f63565b604082019050919050565b60006020820190508181036000830152611fee81611fb2565b9050919050565b600081519050919050565b600082825260208201905092915050565b600061201c82611ff5565b6120268185612000565b9350612036818560208601611559565b61203f81611583565b840191505092915050565b600060808201905061205f6000830187611684565b61206c6020830186611684565b612079604083018561179a565b818103606083015261208b8184612011565b905095945050505050565b6000815190506120a5816114ae565b92915050565b6000602082840312156120c1576120c0611478565b5b60006120cf84828501612096565b9150509291505056fea2646970667358221220cf29b3b2c8170382e2a4d9b20a65bc6d9c37ef5db72c391ab94f718765da470764736f6c63430008100033",
  "immutableReferences": {},
  "source": "// SPDX-License-Identifier: MIT\npragma solidity ^0.8.7;\n\nimport '@openzeppelin/contracts/token/ERC721/ERC721.sol';\n\ncontract OpenPlanetContractMetadata is ERC721 {\n  string public contractURI_;\n  mapping(uint256 => string) public tokenUris;\n\n  constructor(\n    string memory _contractURI,\n    address _to_mint,\n    string memory _metaURI\n  ) ERC721('OpenSea Test', 'TEST') {\n    contractURI_ = _contractURI;\n    _safeMint(_to_mint, 0);\n    tokenUris[0] = _metaURI;\n  }\n\n  function tokenURI(uint256 _tokenId)\n    public\n    view\n    override\n    returns (string memory)\n  {\n    return tokenUris[_tokenId];\n  }\n\n  function contractURI() public view returns (string memory) {\n    return contractURI_;\n  }\n}\n",
  "sourcePath": "/Users/yjs/Documents/GitHub/nft-marketplace-nextjs/backend/contracts/OpenPlanetContractMetadata.sol",
  "compiler": {
    "name": "solc",
    "version": "0.8.16+commit.07a7930e.Emscripten.clang"
  },
  "schemaVersion": "3.4.9",
  "updatedAt": "2022-09-04T19:58:53.404Z",
  "devdoc": {
    "kind": "dev",
    "methods": {
      "approve(address,uint256)": {
        "details": "See {IERC721-approve}."
      },
      "balanceOf(address)": {
        "details": "See {IERC721-balanceOf}."
      },
      "getApproved(uint256)": {
        "details": "See {IERC721-getApproved}."
      },
      "isApprovedForAll(address,address)": {
        "details": "See {IERC721-isApprovedForAll}."
      },
      "name()": {
        "details": "See {IERC721Metadata-name}."
      },
      "ownerOf(uint256)": {
        "details": "See {IERC721-ownerOf}."
      },
      "safeTransferFrom(address,address,uint256)": {
        "details": "See {IERC721-safeTransferFrom}."
      },
      "safeTransferFrom(address,address,uint256,bytes)": {
        "details": "See {IERC721-safeTransferFrom}."
      },
      "setApprovalForAll(address,bool)": {
        "details": "See {IERC721-setApprovalForAll}."
      },
      "supportsInterface(bytes4)": {
        "details": "See {IERC165-supportsInterface}."
      },
      "symbol()": {
        "details": "See {IERC721Metadata-symbol}."
      },
      "transferFrom(address,address,uint256)": {
        "details": "See {IERC721-transferFrom}."
      }
    },
    "version": 1
  },
  "userdoc": {
    "kind": "user",
    "methods": {},
    "version": 1
  }
}